:020000020000FC
:100000000C94CE040C942A000C942A000C942A0020
:100010000C942D010C942A000C942A000C942A00B4
:100020000C942A000C942A000C942A000C942A00A8
:100030000C942A000C946C020C942A000C942A0054
:100040000C942A000C942A000C942A000C942A0088
:100050000C942A00189519BC0E00669C0F00098AA2
:100060001000CE8511008B90120025AB13008DD6A9
:100070001400C2131600D4631700E3C718001D4113
:100080001A00C5D01B0031781D00010101010101DA
:100090000101010101010101010202020202020249
:1000A000020202030303030303030404040404051C
:1000B0000505050606060707070708080909090ACE
:1000C0000A0B0B0C0C0D0E0E0F1010111213131443
:1000D00015161718191A1C1D1E1F21222426272940
:1000E0002B2D2F313335383A3D3F4245484C4F5246
:1000F000565A5E62676B70757A7F858B91989EA564
:10010000ADB5BDC5CED7E0EAF5FF0DC7C59A5778A6
:10011000915DC1489138FC2B3322971AAD1413100E
:10012000800CB8098F07E00592048D03C3022602F4
:10013000AB014C010201C9009C0079005E0049003E
:1001400039002C0023001B001300000000010101F6
:100150000101020202020303030303040404040571
:100160000505050606060607070707080808080923
:100170000909090A0A0A0B0B0B0B0C0C0C0D0D0DCF
:100180000E0E0E0F0F0F101010111112121213136A
:1001900014141415151616171717181819191A1AF2
:1001A0001B1B1C1C1D1D1E1E1F1F20212122222364
:1001B000232425252627272829292A2B2B2C2D2DBA
:1001C0002E2F303031323333343536373838393AF0
:1001D0003B3C3D3E3F3F4041424344454647484902
:1001E0004A4B4C4D4E5051525354555657595A5BE9
:1001F0005C5D5F60616264656668696A6C6D6E70A3
:100200007173747677787A7B7D7E80828385868829
:100210008A8B8D8E9092949597999A9C9EA0A2A479
:10022000A5A7A9ABADAFB1B3B5B7B9BBBDBFC1C38E
:10023000C5C7C9CBCED0D2D4D6D9DBDDE0E2E4E766
:10024000E9EBEEF0F3F5F7FAFCFFE0E0E0E0E0E0E8
:10025000E0E0E0E4E8ECF0F4F8FC0F930FB70F9364
:100260001F932F933F934F935F936F937F93EF93DE
:10027000FF930F921F92509177007091780075FF55
:100280000CC01091BE0043FC109544FC109546FC38
:10029000109547FC1095110F3BC0142D77FF2CC013
:1002A00076FF4091D70076FD4091D60070FF1CC0CC
:1002B0006091D400EEE4F5E1E10FF61FC895042F3C
:1002C000010F102DEEE4F5E1E00FF61FC8950027B1
:1002D00010190809140F081D14F410E000E00023A1
:1002E00009F01FEF105814C0141718F01FEF105822
:1002F0000FC010E010580CC0142D70FF08C06091A2
:10030000D400EEE4F5E1E10FF61FC895102D10586A
:100310006091D50070FF60E0072D73FF07C0EEE429
:10032000F1E2E00FF61FC895002D06C0EEE4FDE2F5
:10033000E00FF61FC895002D005855FD10270093BB
:10034000D8006FE71603F00172FF012F0603E00DDE
:10035000F11D8F01159507951595079509191A092E
:1003600013F401E010E86091DD00492D5A2D309121
:10037000DF002091DE00421B530B13F441E050E8F4
:100380002091770024FF02C09A0113C02091E00061
:100390002223D1F356039001469F210D381D001CE6
:1003A00008F423958894220F331F8894220F331F5B
:1003B0009901020F131F13F40FEF1FE740918900FB
:1003C0002091770024FD40918A0014039001049F3E
:1003D000210D381D001C08F42395920EA31E23F452
:1003E0002FEF3FE7922EA32E3A2D292DE091DE002C
:1003F000F091DF002E1B3F0B13F421E030E8409119
:1004000089002091770024FD40918A0034039001F7
:10041000249F210D381DE20FF31F13F4EFEFFFE7C8
:10042000E093DE00F093DF000E2F1F2FF8012091E4
:100430008B002F3F29F01203F001029FE10DF81D00
:10044000939AF0589298F5BB9398939A929AE5BB39
:100450009398939AEEECF0E00191200E0191301EFA
:100460000191401E0191500E0191601E0191701E7C
:10047000E0917800E5FD21C0E2FF1FC0E091770028
:10048000E1FF10E0E1FD1FEF1123B9F00091D8006A
:10049000010390010091CE0011273003110B210CB4
:1004A000311E411E0091CF003003200C311C411E33
:1004B0000091D0003003300C411C1F900F90FF9131
:1004C000EF917F916F915F914F913F912F911F918C
:1004D0000F910FBF0F9118950F930FB70F930CB19A
:1004E000579878941F930023F2F4102F107F103840
:1004F00051F0103941F0103B31F0103E21F010E086
:100500001093600000C1109360000F70039500937A
:10051000610010917A00112329F0101719F010E0F2
:1005200010936000F0C010916000103819F011387D
:1005300039F00AC013951093600000936200E3C085
:100540001A951093600010C0103919F0113939F064
:100550003BC013951093600000936200D4C01A95BD
:10056000109360000023F9F400916200109165007F
:10057000011719F41FEF1093650010916400011723
:1005800049F4109165001F3F31F0109364001FEF94
:1005900010936500B8C01FEF1093640010E0109333
:1005A0009F00919AB0C00093630010916400109373
:1005B0006500109162001093640011E010939F0099
:1005C0001093A00091989FC0103B19F0113B39F097
:1005D00081C01395109360000093620094C01A9537
:1005E0001093600010916200AF93BF93103320F01E
:1005F000103418F01035D0F064C0A1EEB0E0A10FB7
:10060000B81D000F0C9310531770AFE8B0E0A10FA6
:10061000B81D0C91A7E9B0E0A10FB81D0C93ABE693
:10062000B0E0A10FB81D10E01C9351C01054183059
:1006300020F11770A091780006FB103011F4A0F99A
:1006400019C0113011F4A1F915C0123011F4A2F93A
:1006500011C0133011F4A3F90DC0143011F4A4F932
:1006600009C0153011F4A5F905C0163011F4A6F92A
:1006700001C0A7F9A09378002AC01770A091770055
:1006800006FB103011F4A0F919C0113011F4A1F9D2
:1006900015C0123011F4A2F911C0133011F4A3F9EE
:1006A0000DC0143011F4A4F909C0153011F4A5F9E6
:1006B00005C0163011F4A6F901C0A7F9A093770080
:1006C00006C0A1EEB0E0A10FB81D000F0C93BF91C2
:1006D000AF9119C0103E19F0113E39F014C01395B6
:1006E00010936000009362000EC01A951093600092
:1006F00010916200110F110F001F00581093660037
:100700000093670000C01F910F910FBF0F91579A80
:1007100018950F9302E30A95F1F70F91089527B901
:10072000369A0895349BFECF349A04B115B11695CC
:100730000795169507950895222331F02F93159567
:1007400007952A95E1F72F910895442341F04F939F
:1007500036952795179507954A95D1F74F910895A6
:10076000442341F04F93000F111F221F331F4A955E
:10077000D1F74F910895019F80010895379FE001BF
:10078000279FA001179FD001079F902DA10DB41F97
:10079000C51FD81D369FA001169F900DA11DB41F27
:1007A000C51FD81D269FA001069F802D910DA41F57
:1007B000B51FC81DD81D0A2F1B2F2C2F3D2F0895A4
:1007C000EE0FF0E0BB96EE0FFF1F059115912591FE
:1007D000359108956F937F93E72FF2DF802F912F4C
:1007E000A22FB32FE72FE395EBDF081B190B2A0B82
:1007F0003B0B8F939F93AF93BF93762F60E04F9304
:10080000BDDF4F91BF91AF919F918F91080F191F3D
:100810002A1F3B1F7F916F91089540E002C07C50DA
:1008200043957C30E0F70895EE0FFF1FE00FF81DB1
:1008300004910895E00FF81DEE0FFF1F25913491EC
:100840000895069506950695E5E8F0E0F3DF0027A4
:100850001127089560E0702F703718F0703938F064
:100860000CC000E010E221E0E0E0F0E00BC008E0A6
:1008700011E220E0ECE8FFE605C007EB1DE121E016
:10088000E7E6F2EE30E07ADF0E0F1F1F0895E199E0
:10089000FECFBFB6F8942FBB1EBB0DBBE29AE19A08
:1008A000BFBE0895E199FECFBFB6F8942FBB1EBB23
:1008B000E09A0DB3BFBE0895002700936B0000932C
:1008C0006C0000936D0000936E0000936F00009326
:1008D0007000009371000093720000918F000093EC
:1008E0009700009190000093980000919100009370
:1008F00099000091920000939A0000919300009358
:100900009B000091940000939C000091950000933F
:100910009D000091960000939E000895000F000F27
:10092000000F000F102F20E030E3BCDFC1EED0E05D
:10093000C30FD81D0883139533953034B1F7009158
:100940001F0100937700009120010093780000912F
:100950007300009375000091740000937600ACDF83
:100960000895CBE6D0E0C40FD81D288120FD14C027
:10097000302FC7E9D0E0C40FD81D1881311B0AF40D
:100980003195353038F02160CBE6D0E0C40FD81D6A
:10099000288302C010E0089511E00895F8940091B2
:1009A0003400006804BF04BF0FE518E00DBF1EBF90
:1009B000882422243324442455246624772499242B
:1009C000AA2422273327EE27FF2705E00093CD0036
:1009D00000E00093610100936201009363010093C2
:1009E000640100937A00009379000093D90000938A
:1009F0009F000093A00000938B000093A800009339
:100A0000A9000093AA0000938D0000938500009335
:100A100086000093870000936600009367000093B0
:100A2000E200009369000093E00002E00093880078
:100A30000FEF00936A000093DA000093890000939F
:100A40008A0000936400009365000EE514EB26E72E
:100A50000093BC001093BD002093BE0000E010E0A6
:100A600020E00093BF001093C0002093C1000FEF5F
:100A70001FEF2FEF0093C2001093C3002093C40018
:100A800024E10093C5001093C6002093C70024E61C
:100A90000093C8001093C9002093CA0000E000939F
:100AA000B0000093B5000093A70000937B00009373
:100AB0007C000093680000E00BBB00E00ABB0FEF76
:100AC00008BB00E007BB00E005BB0FEF04BB0CEF69
:100AD00002BB0EEF01BB919A939A929800E003BF7C
:100AE00004E00EBD06E303BD0AE005BD00E000BD65
:100AF0000FE109B900E90AB906E806B900E809BF3B
:100B0000789420918D000BDECFE8D0E0C20FD81D85
:100B100009DE0883239503DEC39504DE088323954D
:100B2000FEDDC395FFDD08832395F9DDC395FADD6E
:100B300008832395F4DDC395F5DD08832395EFDD68
:100B4000C395F0DD08832395EADDC395EBDD0883CB
:100B50002395E5DDC395E6DD088320E020938D0035
:100B6000DEDD23E01EEF9EDED9DE23E01FEF9ADEFE
:100B700000937A000CB51DB50093A1001093A2005C
:100B80000CB51DB52091A1003091A200021B130BE2
:100B90000A56184108F419C100917900002329F080
:100BA000009363010FE3009362010091630100234E
:100BB000D1F00091610110E4010F003830F0109184
:100BC00062011A9541F0919A0AC0109162011A953A
:100BD00011F0919804C0919A00E000936301009392
:100BE0006101109362010CB51DB50093A100109333
:100BF000A20000E111E020E130E040E050E0E2B38B
:100C0000E06FE027E2BB85DDE6B3E0FF312BE1FFDB
:100C1000322BE2FF412BE3FF422BE4FF512B110F5C
:100C2000220F000F61F702B3006F02BB3093730015
:100C3000409374005093790010916A0010FF07C030
:100C40003093750040937600112710936A0000914D
:100C50007300109175000117C9F120917700EE27FC
:100C6000102710FF06C000FB20F90F9325DE0F911F
:100C7000E0E111FF03C001FB21F9EFE012FF03C027
:100C800002FB22F9EEE013FF03C003FB23F9EDE0C2
:100C900014FF03C004FB24F9E8E015FF03C005FBC3
:100CA00025F9E7E016FF03C006FB26F9E6E017FF8B
:100CB00003C007FB27F9E5E0E093640110916301AD
:100CC000123011F0209377000093750000917400AA
:100CD000109176000117B1F120917800EE271027CE
:100CE00010FF03C000FB20F9ECE011FF03C001FB83
:100CF00021F9EBE012FF03C002FB22F9EAE013FF47
:100D000003C003FB23F9E9E014FF03C004FB24F94B
:100D1000E4E015FF03C005FB25F9E3E016FF03C07F
:100D200006FB26F9E2E017FF03C007FB27F9E1E025
:100D3000E093640110916301123011F02093780068
:100D400000937600109163011123F9F10091640181
:100D50000023D9F1113029F1123031F00A9523E046
:100D60001EEF95DDDBDD27C01091DA00112319F1AC
:100D70000A9523E01EEF8BDD10E01093DA0010934C
:100D8000DB00000F000F000F000F0093DC0000914C
:100D9000770000931F0100917800009320018CDD03
:100DA0000AC00395013109F401E00A9500937A0025
:100DB00023E01FEF6CDD919A00E000936301009344
:100DC000610100936201009364010091DA0007FD64
:100DD00020C0E1991EC02091DB0010E3120FC1EE8C
:100DE000D0E0C10FD81D18810091DC00020F30E067
:100DF0003FBB0EBB1DBBBFB6F894E29AE19ABFBEE3
:100E00002F3021F023952093DB0003C01FEF1093B8
:100E1000DA0088DC20918D0020938E00CFE8D0E0AE
:100E2000C20FD81D08832395277020938D0077DC8F
:100E300040918E00403069F494DD112311F000934D
:100E40001101009111010C3F08F00CEF009311010A
:100E5000A1C0413031F485DD112339F10093120135
:100E600099C0463099F47DDD112311F000931701EC
:100E7000009117010695025110F404E004C00430FB
:100E800008F001C004E00093D70084C0473071F43B
:100E900068DD112311F00093180100911801DADCCC
:100EA000105800937B0010937C0074C03091770041
:100EB00030FD0C948107423031F453DD112341F1B0
:100EC0000093130125C0433041F44BDD1123C1F0E1
:100ED00000936800009314015DC0443031F441DD9B
:100EE0001123D9F10093150138C0453049F439DD9B
:100EF000112331F00695102F1695010F009316015E
:100F000049C04230D9F42DDD112311F000931B01AB
:100F100000911B013091780034FF08C03FEF3093FF
:100F20008300309382000093840034C030E030931B
:100F3000830000938200009384002CC0433031F47E
:100F400010DD112339F100931C0124C04430D9F481
:100F500008DD112311F000931D0100911D01309156
:100F6000780034FF08C03FEF30937F0030937E005D
:100F7000009380000FC030E030937F0000937E002C
:100F80000093800007C0453029F4EBDC112311F0F9
:100F900000931E0100916300000F10911501019F45
:100FA0001092AF006CB57DB5262F372F0091A300AE
:100FB0001091A400601B710B2093A3003093A40038
:100FC0006093A5007093A60000911301009539DC91
:100FD0006091A5007091A600D1DB3091B1004091E5
:100FE000B2005091B3005058F0E0E091B000EE2311
:100FF000A1F46091C2007091C3008091C400300FD1
:10100000411F521F20F0361747075807C8F0362FE8
:10101000472F582FE1E0F1E013C06091BF007091BD
:10102000C0008091C100301B410B520B20F06317B0
:101030007407850728F0362F472F582FE0E0F1E09E
:10104000E093B00050583093B1004093B2005093F9
:10105000B30000E010E020E0E0917700E2FF09C07B
:10106000FF23B1F00091BC001091BD002091BE00A3
:101070002F770093BF001093C0002093C10000950C
:10108000109520950093C2001093C3002093C400D4
:101090000091770002FF05C0FF2361F05091BE0070
:1010A00007C00091770003FF03C0550F5FE7581D8D
:1010B0005093B400009114011091E200011708F45C
:1010C000012F009368000091170106950695009581
:1010D000B8DB6091A5007091A60050DB3091B6009E
:1010E0004091B7005091B8005058F0E0E091B50041
:1010F000EE23A1F46091C8007091C9008091CA00EC
:10110000300F411F521F20F0361747075807C8F00D
:10111000362F472F582FE1E0F1E013C06091C50052
:101120007091C6008091C700301B410B520B20F01C
:1011300063177407850728F0362F472F582FE0E0F4
:10114000F1E0E093B50050583093B6004093B700FB
:101150005093B80050585093D6001091A7000091BA
:101160001E01113069F000917E00123049F00091AB
:101170008000143029F060917F00133039F13AC0BB
:1011800060DB6091A5007091A600F8DA3091A800AC
:101190004091A9005091AA006091A7006430D1F05D
:1011A000623049F0300F411F521FF0F43FEF4FEF14
:1011B0005FEF02E017C0301B410B520B78F06091DB
:1011C0007F00651788F003E00093A70033274427CA
:1011D000562F0AC0301B410B520B30F430E040E078
:1011E00050E000E00093A7003093A8004093A900CE
:1011F0005093AA001091AB0000911C01113069F0CE
:1012000000918200123049F000918400143029F0DE
:1012100060918300133039F13CC013DB6091A5006D
:101220007091A600ABDA3091AC004091AD005091C6
:10123000AE006091AB006430D1F0623049F0300F05
:10124000411F521F00F53FEF4FEF5FEF02E019C063
:10125000301B410B520B78F060918300651798F0BA
:1012600003E00093AB0033274427562F0CC0301BFC
:10127000410B520B40F430E040E050E000E00093BE
:10128000E0000093AB003093AC004093AD0050936E
:10129000AE0000919F00002371F404E01091A700BC
:1012A000112351F10093A7001091AB00112321F1FC
:1012B0000093AB0021C00091A0000023E9F000E002
:1012C0000093A00000918800002319F00A95009374
:1012D000880001E00093A7000093AB000093E000BA
:1012E0000FEF1FEF2FE70093B1001093B200209390
:1012F000B30001E00093B00090E060E07091640002
:101300007F3F11F4AEC07C507136E8F701C0745FC6
:101310007432E8F37C5090918500A0918600B091E2
:10132000870000918800002381F50091160189DA79
:101330006F937F93622F732F00E010E02091A50040
:101340003091A60043E001DA19DA7F916F91302FD6
:10135000412F522F90918500A0918600B091870077
:101360006A177B0738F4931BA40BB50B6A177B072E
:1013700050F006C0930FA41FB51F6A177B0718F41F
:1013800090E0A62FB72F6A2F7B2F90938500609354
:10139000860070938700009166001091670025E039
:1013A000CBD9202F312F020F131F020F131F600FF5
:1013B000711F70938C000091770007FF0C94FD095A
:1013C0000091B400109168002091770026FF10E092
:1013D000212F1695203810F01058120F01038001AC
:1013E00024E0AAD9600F711F77231AF460E070E03F
:1013F00004C07D3610F060E07CE66F937F93972FFA
:101400009D5008F499279695969596959093D400BB
:1014100004DAE0D9A5D91093CE002093CF00309301
:10142000D0007F916F9100917B0010917C0024E0AF
:1014300083D9600F711F0091780001FD745F972FB1
:101440009D5008F499279695969596959093D5007A
:10145000E4D9C0D985D91093D1002093D20030931C
:10146000D300E0E0F0E00091770007FD0C94450A1E
:101470000091B400109168002091770026FF10E0E1
:101480000103E12DF0E0111CFF0B0091AE00109163
:10149000AF00019F8001001FE11FF81D00918C002B
:1014A000000F00561BEA0103800120E017FD2FEF1B
:1014B000E10FF21F0091120111270E0F1F1F1123C0
:1014C00012F400E002C009F00FEF0695E5E4F0E049
:1014D000ABD9009389000A5008F400E000938A0019
:1014E0001091110100918900003110F0012F06C008
:1014F000E5E2F1E099D9011708F0012F2091890068
:101500001FEF121B169530E1130F011B08F400E0CA
:101510000093DD000091AA00E5EAF0E085D9009390
:101520008B000091BC001091BD002091BE0027FBF4
:1015300030F922FB40F934273695001F111F221F76
:101540000093BC001093BD002093BE0019CB801205
:1015500011151616161819191A1B1C1D1E1F2020EE
:10156000212223242526272728292A2B2C2D2D2EFE
:101570002F30313233343435363738393A3A3B3C10
:101580003D3E3F4041414243444546474748494A22
:101590004B4C4D4D4E4F5051525353545556575836
:1015A00059595A5B5C5D5E5F606061626364656649
:1015B000666768696A6B6C6D6D6E6F70717273735C
:1015C0007475767778797A7A7B7C7D7E7F8080806F
:1015D000818283848586868788898A8B8C8D8D8E8F
:1015E0008F90919293939495969798999A9A9B9CA1
:1015F0009D9E9FA0A0A1A2A3A4A5A6A7A7A8A9AAB3
:10160000ABACADADAEAFB0B1B2B3B3B4B5B6B7B8C5
:10161000B9B9BABBBCBDBEBFBFC0C1C2C3C4C5C6D9
:10162000C6C7C8C9CACBCCCCCDCECFD0D1D2D3D3EC
:10163000D4D5D6D7D8D9D9DADBDCDDDEDFE0E0E1FE
:10164000E2E3E4E5E6E7E7E8EAEAEAEBEFEE801159
:1016500010151715161919191A1C1C1D1E1F1F20ED
:10166000222223242526262728292A2B2C2C2D2EFE
:101670002F3031323333343536373839393A3B3C11
:101680003D3E3F4040414243444546464748494A23
:101690004B4C4C4D4E4F5051525353545556575836
:1016A00059595A5B5C5D5E5F606061626364656648
:1016B000666768696A6B6C6D6D6E6F70717273735B
:1016C0007475767778797A7A7B7C7D7E7F8080806E
:1016D000818283848586868788898A8B8C8D8D8E8E
:1016E0008F90919293939495969798999A9A9B9CA0
:1016F0009D9E9FA0A0A1A2A3A4A5A6A7A7A8A9AAB2
:10170000ABACADADAEAFB0B1B2B3B4B4B5B6B7B8C3
:10171000B9BABABBBCBDBEBFC0C0C1C2C3C4C5C6D6
:10172000C7C7C8C9CACBCCCDCDCECFD0D1D2D3D4E8
:10173000D4D5D6D7D8D9DADADBDCDDDEDEE0E1E1FC
:10174000E2E3E4E4E6E7E7E7EAEBE9EBF0EF801C4D
:10175000161414141516181A1B1C1D1D1E1E1F20EE
:1017600021222324252627272829292A2B2C2D2E00
:101770002F30313232333435363738393A3A3B3C10
:101780003D3E3E3F40414243444546464748494A24
:101790004B4C4D4D4E4F5051525253545556575835
:1017A00059595A5B5C5D5E5F606161626364656547
:1017B000666768696A6B6C6D6D6E6F707172737459
:1017C000747576777879797A7B7C7D7E7F8080806E
:1017D000818283848586878788898A8B8C8C8D8E8D
:1017E0008F90919293939495969798999A9B9B9C9E
:1017F0009D9E9F9FA0A1A2A3A4A5A6A7A7A8A9AAB2
:10180000ABACADAEAEAFB0B1B2B3B3B4B5B6B7B8C2
:10181000B9BABABBBCBDBEBFC0C1C2C2C3C4C5C6D3
:10182000C6C7C8C9CACBCCCDCECECFD0D1D2D3D4E7
:10183000D5D6D7D7D8D9D9DADBDCDDDEDFE0E1E2F7
:10184000E2E3E3E4E5E6E8EAEBECECECEAE4800A68
:101850000F1A15131919171A1C1A1C1E1D1E2120E8
:10186000212323232526262829292A2C2C2C2E2EF9
:101870002F30313133343435373738393A3A3C3C0C
:101880003D3E3F3F41424243444546474748494A1F
:101890004B4C4D4D4E505051525353555556575831
:1018A000595A5B5B5C5D5E5F606161626364656643
:1018B000666769696A6B6C6C6E6E6F707172737457
:1018C0007475767778797A7A7B7C7D7E7F7F80816C
:1018D000818283848586868788898A8B8C8C8D8E8D
:1018E0008F90919292949495969797999A9A9B9C9F
:1018F0009D9E9F9FA0A1A2A3A4A5A5A6A7A8A9AAB3
:10190000ABABADADAEAFB0B0B2B3B3B4B5B6B7B8C4
:10191000B9B9BABBBCBDBEBEBFC1C1C2C3C4C4C6D7
:10192000C6C7C8C9C9CBCCCCCDCFCFD0D1D2D2D4E9
:10193000D4D4D6D7D7D8DADADBDDDDDDDFE0DFE2FD
:10194000E3E2E4E6E4E6E9E7E7EDEBE6F1F6800161
:101950001B131519141C161C191C1D1C201D211FDE
:10196000222223252427262828292B2A2D2C2E2EF7
:101970003030313232343436363738383A3A3C3C0B
:101980003D3E3F40404242434445464648484A4A1D
:101990004B4C4C4E4E50505152535454565657582F
:1019A000595A5A5C5C5D5E5F606062626364656642
:1019B0006668686A6A6B6C6D6E6E70707172737453
:1019C0007476767778797A7A7C7C7D7E7F80808069
:1019D000818283848486868788898A8A8C8C8D8E8E
:1019E0008F90909292939495969698989A9A9B9CA1
:1019F0009D9E9EA0A0A1A2A3A4A4A6A6A7A8A9AAB2
:101A0000AAACACADAEAFB0B0B2B2B4B4B5B6B6B8C5
:101A1000B8BABABBBCBDBEBEC0C0C1C2C3C4C4C6D6
:101A2000C6C8C8C9CACACCCCCECECFD0D0D2D2D4E8
:101A3000D3D6D5D7D8D8DAD9DCDBDDDEDEE1DFE3FB
:101A4000E0E4E3E4E7E4EAE4ECE7EBEDE5FF801A49
:101A500001181E11131D1B151A1F1B1A20211E1FF2
:101A6000242321242725252929282A2C2C2B2E2FF5
:101A70002E2F32323233353535383938393B3C3B0D
:101A80003D3F3E3F41424243454545474848494B1B
:101A90004B4B4D4E4E4F5051515254555556585830
:101AA000585A5B5B5C5E5E5E606161626464646642
:101AB000676768696A6B6B6D6E6E6F717171737455
:101AC0007475777777797A7A7B7D7D7D7F8080806A
:101AD00081838383858686878989898B8C8C8D8F8A
:101AE0008F8F91929293959596979899999A9C9C9D
:101AF0009C9E9F9FA0A2A2A2A4A5A5A6A8A8A8AAB2
:101B0000ABABACAEAFAFB0B1B2B2B3B5B5B5B7B8C1
:101B1000B8B9BBBBBBBDBEBEBFC1C2C1C3C5C4C5D6
:101B2000C7C8C7C8CBCBCBCDCECECED1D2D1D2D5E4
:101B3000D4D4D6D8D7D7DBDBD9DCDFDDDCE1E2DFFC
:101B4000E0E6E5E1E6EBE5E3EDEFE2E8FFE680392C
:101B50000B000D1D211B13131920211D1A1B2024FE
:101B6000242120222628282626282B2D2C2B2B2EFC
:101B70003132313031343636353537393B3B3A3B0B
:101B80003C3F40403F4042444545454547494A4A1D
:101B90004A4B4D4E4F4F4F5052545454545658592F
:101BA00059595A5B5D5E5E5E5F6162636363646642
:101BB000676868686A6C6C6D6D6E6F717172727354
:101BC0007576777777787A7B7C7C7C7E7F80808067
:101BD00081828484848586888989898A8B8D8E8E8A
:101BE0008F8F91929393949496989898999A9C9D9C
:101BF0009D9D9E9FA1A2A2A2A3A5A6A7A7A7A8AAB2
:101C0000ACACACACAEB0B1B1B1B2B3B5B6B6B6B7C0
:101C1000B9BBBBBBBBBCBEC0C1C0C0C1C4C5C6C5CF
:101C2000C5C7C9CBCBCACACCCFD0CFCECFD2D5D5E2
:101C3000D4D3D5D8DADAD8D8DADEE0DFDCDCE0E5F8
:101C4000E6E3DFE0E7EDEDE5DFE3F3FFF5C7805125
:101C5000290E02030C172024221D1815161A202401
:101C600026262421202124282B2C2C2B2A292A2CFF
:101C70002F323333333231323437393B3B3A3A3A0D
:101C80003B3D3F414242424242434547494A4A4A1C
:101C90004A4A4B4C4E505152525152535456585935
:101CA0005A59595A5B5C5E60616161616263646646
:101CB0006869696969696A6C6E6F70717171717256
:101CC00074767778797979797A7C7D7F8080808065
:101CD00080818384868787878788898A8C8E8F8F87
:101CE0008F8F90919294969797979797989A9C9D9B
:101CF0009E9F9F9F9FA0A2A4A5A6A7A7A6A7A8AAAC
:101D0000ACADAEAFAEAEAFB0B2B4B5B6B6B6B6B6B9
:101D1000B7B9BBBDBEBEBEBEBEBFC1C3C5C6C6C6CB
:101D2000C5C5C7C9CCCECFCECDCDCDCED1D4D6D7DB
:101D3000D6D5D4D4D5D8DCDFE0DFDCDADADCE0E6F7
:101D4000EAEBE8E3DEDCE0E9F4FDFEF2D7AF806128
:101D5000442B180B0403060C141C222628272522CA
:101D60001E1C1B1B1D2124282B2E2F2F2E2C2B2A13
:101D70002A2B2C2F31343638393939383737373820
:101D80003A3C3E4042444445444444444445474828
:101D90004A4C4E4F50505050505051525355575935
:101DA0005A5B5C5C5C5C5C5C5D5E60616365666745
:101DB000686868686869696B6C6E70717374747454
:101DC000747475757677797A7C7E7F808080808068
:101DD00080808182848687898A8B8B8C8C8C8C8C8A
:101DE0008D8F9092949597979898989898999A9B98
:101DF0009D9FA0A2A3A4A4A4A4A4A4A5A6A7A9ABA4
:101E0000ADAEAFB0B0B0B0B0B0B1B2B4B6B8B9BBAF
:101E1000BCBCBCBCBCBBBCBCBEC0C2C4C6C8C9C9BF
:101E2000C9C8C7C7C7C8CACCCFD1D4D5D6D6D5D4D0
:101E3000D2D1D1D2D5D8DCDFE3E5E5E4E2DEDBD9EF
:101E4000D8DADEE4ECF4FAFDFCF5E8D5BC9F806D51
:101E50005A49382A1E140C08050506090D12181DCA
:101E600022262A2C2E2F2E2D2C2A292726252425E2
:101E70002627292C2F313437393B3C3D3D3D3D3D14
:101E80003C3B3B3B3B3B3C3D3F41434547494B4D46
:101E90004E4F4F505050504F4F4F4F505052535441
:101EA00056585A5C5E5F6062626363636363636338
:101EB0006364646567686A6B6D6F7172747575765B
:101EC000767777777777777778797A7B7D7F808178
:101ED0008385868788898989898989898A8A8B8B7C
:101EE0008C8E8F9193959698999B9C9C9D9D9D9D82
:101EF0009D9D9D9D9E9EA0A1A2A4A6A8AAACADAEAC
:101F0000B0B0B1B1B1B1B0B0B0B0B1B1B2B3B5B7BA
:101F1000B9BBBDBFC1C3C4C5C5C5C5C5C4C3C3C3A3
:101F2000C3C3C4C5C7C9CCCFD1D4D7D9DADBDCDBB6
:101F3000DAD9D7D6D4D3D2D1D2D4D6DADEE3E8EE0A
:101F4000F3F7FAFBFBF8F4ECE2D6C8B7A69380747B
:101F5000685B50453A3128201A140F0C0A0808080B
:101F6000090B0E1114181C2023272A2E3033353666
:101F70003838393938383736363534333232323208
:101F80003333343537393B3D3F414345484A4C4D67
:101F90004F5051525353535353535353535252521E
:101FA00053535454555658595B5C5E60626466677F
:101FB000696B6C6D6E6F707071717171717171712F
:101FC000717272727374747677787A7B7D7F808198
:101FD00083858688898A8C8C8D8E8E8E8F8F8F8F4D
:101FE0008F8F8F8F8F9090919293949597999A9CC1
:101FF0009EA0A2A4A5A7A8AAABACACADADAEAEAE58
:10200000ADADADADADADADADADAEAFB0B1B3B4B6E0
:10201000B8BBBDBFC1C3C5C7C9CBCCCDCDCECECE5D
:10202000CECDCCCBCACAC9C8C8C7C7C8C8CACBCD11
:10203000D0D2D6D9DDE0E4E8ECEFF2F5F7F8F8F825
:10204000F6F4F1ECE6E0D8CFC6BBB0A5988C80776B
:102050006E655D544C443C352F29231E1A1613100F
:102060000E0C0B0B0B0B0C0E101214171A1D202349
:1020700026292C2F3235373A3C3D3F4042434344DA
:10208000444444444443434242414141404040402F
:10209000404141424344454648494B4D4F515355B9
:1020A00057595B5C5E6062636566676869696A6B05
:1020B0006B6B6B6B6C6C6B6B6B6B6B6C6C6C6C6D68
:1020C0006D6E6F70717273757678797B7D7F8081AC
:1020D000838587888A8B8D8E8F9091929393949429
:1020E00094949595959595949495959595959697A1
:1020F0009798999A9B9D9EA0A2A4A5A7A9ABADAFC6
:10210000B1B3B5B7B8BABBBCBDBEBFBFC0C0C0C01D
:10211000C0BFBFBFBEBEBDBDBCBCBCBCBCBCBDBDEA
:10212000BEC0C1C3C4C6C9CBCED1D4D7DADDE0E3CB
:10213000E6E9ECEEF0F2F4F5F5F5F5F4F2F0EDEA9F
:10214000E6E2DDD7D1CBC4BCB4ACA39B928980E6D8
:10215000E7E5E4E5E6E5E5E5E5E5E5E5E5E5E5E52D
:10216000E5E5E5E5E5E5E5E5E5E5E5E5E5E5E5E51F
:10217000E5E5E5E5E5E5E5E5E5E5E5E5E5E5E5E50F
:10218000E5E5E5E5E5E5E5E5E5E5E5E5E5E5E5E5FF
:10219000E5E5E5E5E5E5E5E5E5E5E5E5E5E5E5E5EF
:1021A000E5E5E5E5E5E5E5E5E5E5E5E5E5E5E5E5DF
:1021B000E5E5E5E5E5E5E5E5E5E5E5E5E5E5E5E5CF
:1021C000E5E5E5E5E5E5E5E5E6E5E4E5E7E6801AEC
:1021D000191B1C1B1A1B1B1B1B1B1B1B1B1B1B1B51
:1021E0001B1B1B1B1B1B1B1B1B1B1B1B1B1B1B1B3F
:1021F0001B1B1B1B1B1B1B1B1B1B1B1B1B1B1B1B2F
:102200001B1B1B1B1B1B1B1B1B1B1B1B1B1B1B1B1E
:102210001B1B1B1B1B1B1B1B1B1B1B1B1B1B1B1B0E
:102220001B1B1B1B1B1B1B1B1B1B1B1B1B1B1B1BFE
:102230001B1B1B1B1B1B1B1B1B1B1B1B1B1B1B1BEE
:102240001B1B1B1B1B1B1B1B1A1B1C1B191A80E6B1
:10225000E8E4E4E6E6E4E5E6E5E4E5E5E5E5E5E52C
:10226000E5E5E5E5E5E5E5E5E5E5E5E5E5E5E5E51E
:10227000E5E5E5E5E5E5E5E5E5E5E5E5E5E5E5E50E
:10228000E5E5E5E5E5E5E5E5E5E5E5E5E5E5E5E5FE
:10229000E5E5E5E5E5E5E5E5E5E5E5E5E5E5E5E5EE
:1022A000E5E5E5E5E5E5E5E5E5E5E5E5E5E5E5E5DE
:1022B000E5E5E5E5E5E5E5E5E5E5E5E5E5E5E5E5CE
:1022C000E5E5E5E4E5E6E5E4E6E6E4E4E8E6801AEB
:1022D000181C1C1A1A1C1B1A1B1C1B1B1B1B1B1B50
:1022E0001B1B1B1B1B1B1B1B1B1B1B1B1B1B1B1B3E
:1022F0001B1B1B1B1B1B1B1B1B1B1B1B1B1B1B1B2E
:102300001B1B1B1B1B1B1B1B1B1B1B1B1B1B1B1B1D
:102310001B1B1B1B1B1B1B1B1B1B1B1B1B1B1B1B0D
:102320001B1B1B1B1B1B1B1B1B1B1B1B1B1B1B1BFD
:102330001B1B1B1B1B1B1B1B1B1B1B1B1B1B1B1BED
:102340001B1B1B1C1B1A1B1C1A1A1C1C181A80DDB9
:10235000E3E5E6E7E7E6E6E5E5E4E4E5E5E5E6E628
:10236000E6E6E5E5E5E5E5E5E5E5E5E6E5E5E5E51A
:10237000E5E5E5E5E5E5E5E5E5E5E5E5E5E5E5E50D
:10238000E5E5E5E5E5E5E5E5E5E5E5E5E5E5E5E5FD
:10239000E5E5E5E5E5E5E5E5E5E5E5E5E5E5E5E5ED
:1023A000E5E5E5E5E5E5E5E5E5E5E5E5E5E5E5E5DD
:1023B000E5E6E5E5E5E5E5E5E5E5E5E6E6E6E6E5C8
:1023C000E5E5E4E4E5E5E6E6E7E7E6E5E3DD8023E9
:1023D0001D1B1A19191A1A1B1B1C1C1B1B1B1A1A52
:1023E0001A1A1B1B1B1B1B1B1B1B1B1A1B1B1B1B40
:1023F0001B1B1B1B1B1B1B1B1B1B1B1B1B1B1B1B2D
:102400001B1B1B1B1B1B1B1B1B1B1B1B1B1B1B1B1C
:102410001B1B1B1B1B1B1B1B1B1B1B1B1B1B1B1B0C
:102420001B1B1B1B1B1B1B1B1B1B1B1B1B1B1B1BFC
:102430001B1A1B1B1B1B1B1B1B1B1B1A1A1A1A1BF1
:102440001B1B1C1C1B1B1A1A19191A1B1D2380EDA0
:10245000EAE0E5E8E3E4E7E4E4E6E5E4E6E5E4E52C
:10246000E6E4E5E6E4E5E6E5E5E5E5E4E5E5E4E51D
:10247000E5E4E5E5E5E5E5E5E5E5E5E5E5E5E5E50D
:10248000E5E5E5E5E5E5E5E5E5E5E5E5E5E5E5E5FC
:10249000E5E5E5E5E5E5E5E5E5E5E5E5E5E5E5E5EC
:1024A000E5E5E5E5E5E5E5E5E5E5E5E4E5E5E4E5DE
:1024B000E5E4E5E5E5E5E6E5E4E6E5E4E6E5E4E5CD
:1024C000E6E4E5E6E4E4E7E4E3E8E5E0EAED8013EA
:1024D00016201B181D1C191C1C1A1B1C1A1B1C1B4C
:1024E0001A1C1B1A1C1B1A1B1B1B1B1C1B1B1C1B3B
:1024F0001B1C1B1B1B1B1B1B1B1B1B1B1B1B1B1B2B
:102500001B1B1B1B1B1B1B1B1B1B1B1B1B1B1B1B1B
:102510001B1B1B1B1B1B1B1B1B1B1B1B1B1B1B1B0B
:102520001B1B1B1B1B1B1B1B1B1B1B1C1B1B1C1BF9
:102530001B1C1B1B1B1B1A1B1C1A1B1C1A1B1C1BEA
:102540001A1C1B1A1C1C191C1D181B20161380F5A5
:10255000DFE6E7E2E8E1E8E3E5E5E4E7E3E6E4E532
:10256000E5E4E6E4E6E4E5E5E4E6E4E6E4E5E5E51D
:10257000E5E4E6E4E5E5E5E5E4E6E4E5E5E5E5E40E
:10258000E5E4E5E5E5E5E4E5E4E5E5E5E5E4E5E400
:10259000E5E5E5E5E4E5E4E5E5E5E5E4E5E4E5E5EF
:1025A000E5E5E4E6E4E5E5E5E5E4E6E4E5E5E5E5DD
:1025B000E4E6E4E6E4E5E5E4E6E4E6E4E5E5E4E6CD
:1025C000E3E7E4E5E5E3E8E1E8E2E7E6DFF5800BF1
:1025D000211A191E181F181D1B1B1C191D1A1C1B44
:1025E0001B1C1A1C1A1C1B1B1C1A1C1A1C1B1B1B39
:1025F0001B1C1A1C1B1B1B1B1C1A1C1B1B1B1B1C28
:102600001B1C1B1B1B1B1C1B1C1B1B1B1B1C1B1C15
:102610001B1B1B1B1C1B1C1B1B1B1B1C1B1C1B1B06
:102620001B1B1C1A1C1B1B1B1B1C1A1C1B1B1B1BF8
:102630001C1A1C1A1C1B1B1C1A1C1A1C1B1B1C1AE8
:102640001D191C1B1B1D181F181E191A210B80DEBB
:10265000F6E2DDE9E9E1E3E9E6E2E5E8E4E3E7E61D
:10266000E3E4E7E5E3E5E7E4E4E6E6E4E5E6E5E41C
:10267000E5E6E4E4E6E6E4E5E6E5E4E5E6E4E4E60A
:10268000E5E4E5E6E5E4E5E6E4E4E6E5E4E5E6E5FB
:10269000E4E5E6E4E4E6E5E4E5E6E5E4E5E6E4E4ED
:1026A000E6E5E4E5E6E5E4E6E6E4E4E6E5E4E5E6D9
:1026B000E5E4E6E6E4E4E7E5E3E5E7E4E3E6E7E3CB
:1026C000E4E8E5E2E6E9E3E1E9E9DDE2F6DE8022DD
:1026D0000A1E2317171F1D171A1E1B181C1D191A57
:1026E0001D1C191B1D1B191C1C1A1A1C1B1A1B1C38
:1026F0001B1A1C1C1A1A1C1B1A1B1C1B1A1C1C1A2A
:102700001B1C1B1A1B1C1B1A1C1C1A1B1C1B1A1B18
:102710001C1B1A1C1C1A1B1C1B1A1B1C1B1A1C1C06
:102720001A1B1C1B1A1B1C1A1A1C1C1A1B1C1B1AFA
:102730001B1C1A1A1C1C191B1D1B191C1D1A191DE8
:102740001C181B1E1A171D1F1717231E0A2280C1D3
:10275000ECF7EDDFDBE2EAECE7E1E0E4E9E9E5E212
:10276000E2E5E8E8E5E3E3E6E8E7E4E3E4E6E7E614
:10277000E4E3E4E6E7E6E4E3E5E6E7E5E4E4E5E709
:10278000E6E5E4E4E5E7E6E5E4E4E6E7E6E4E4E4F8
:10279000E6E7E6E4E4E5E6E7E5E4E4E5E6E7E5E4E4
:1027A000E4E5E7E6E5E3E4E6E7E6E4E3E4E6E7E6D6
:1027B000E4E3E4E7E8E6E3E3E5E8E8E5E2E2E5E9C7
:1027C000E9E4E0E1E7ECEAE2DBDFEDF7ECC1803FD2
:1027D00014091321251E1614191F201C17171B1E60
:1027E0001E1B18181B1D1D1A18191C1D1C1A191A3E
:1027F0001C1D1C1A191A1C1D1B1A191B1C1C1B1929
:102800001A1B1C1C1B191A1B1C1C1A191A1C1C1C19
:102810001A191A1C1C1B1A191B1C1C1B1A191B1C0D
:102820001C1B191A1B1D1C1A191A1C1D1C1A191AFB
:102830001C1D1C19181A1D1D1B18181B1E1E1B17EA
:10284000171C201F1914161E25211309143F80ABD5
:10285000D0E9F6F7F0E7DFDBDDE2E8EBECEAE6E211
:10286000E0E1E3E7E9EAE9E6E3E2E2E4E6E8E9E811
:10287000E6E4E3E3E4E6E7E8E8E6E4E3E3E4E5E707
:10288000E8E8E6E5E3E3E4E5E7E8E8E7E5E4E3E4F0
:10289000E5E7E8E8E7E5E4E3E3E5E6E8E8E7E5E4DB
:1028A000E3E3E4E6E8E8E7E6E4E3E3E4E6E8E9E8CE
:1028B000E6E4E2E2E3E6E9EAE9E7E3E1E0E2E6EAC8
:1028C000ECEBE8E2DDDBDFE7F0F7F6E9D0AB8055D3
:1028D00030170A0910192125231E181514161A1E5F
:1028E000201F1D191716171A1D1E1E1C1A1817183F
:1028F0001A1C1D1D1C1A1918181A1C1D1D1C1B1929
:1029000018181A1B1D1D1C1B191818191B1C1D1C1F
:102910001B191818191B1C1D1D1B1A1818191B1C14
:102920001D1D1C1A1818191A1C1D1D1C1A18171801
:102930001A1C1E1E1D1A171617191D1F201E1A16E7
:102940001415181E2325211910090A173055809CCB
:10295000B7CEE0EEF6F8F7F2ECE6E1DDDCDCDFE244
:10296000E6E9ECEDEDEBE9E6E3E1E0E0E2E3E6E801
:10297000E9EAEAEAE8E6E4E3E2E2E2E4E5E7E9E9F3
:10298000EAE9E8E6E5E3E2E2E3E4E5E7E8E9E9E9E4
:10299000E8E7E5E4E3E2E2E3E5E6E8E9EAE9E9E7D6
:1029A000E5E4E2E2E2E3E4E6E8EAEAEAE9E8E6E3CB
:1029B000E2E0E0E1E3E6E9EBEDEDECE9E6E2DFDCC5
:1029C000DCDDE1E6ECF2F7F8F6EEE0CEB79C8064F1
:1029D000493220120A08090E141A1F232424211E2A
:1029E0001A1714131315171A1D1F20201E1D1A184D
:1029F00017161616181A1C1D1E1E1E1C1B1917173B
:102A00001617181A1B1D1E1E1D1C1B191817171729
:102A100018191B1C1D1E1E1D1B1A18171617171917
:102A20001B1C1E1E1E1D1C1A1816161617181A1D02
:102A30001E20201F1D1A1715131314171A1E2124E8
:102A400024231F1A140E09080A12203249648090A8
:102A50009FAFBDCAD6E0E8EFF4F7F9FAF9F7F4F161
:102A6000EDEAE6E3E1DEDDDCDCDDDEDFE1E4E6E845
:102A7000EAECEDEEEFEFEEEDECEAE9E7E5E3E2E1BB
:102A8000E0E0E0E1E2E3E4E6E7E9EAECEDEDEDEDDC
:102A9000EDECEAE9E7E6E4E3E2E1E0E0E0E1E2E3ED
:102AA000E5E7E9EAECEDEEEFEFEEEDECEAE8E6E47F
:102AB000E1DFDEDDDCDCDDDEE1E3E6EAEDF1F4F7CB
:102AC000F9FAF9F7F4EFE8E0D6CABDAF9F9080704D
:102AD000615143362A2018110C09070607090C0F0B
:102AE00013161A1D1F222324242322211F1C1A1807
:102AF0001614131211111213141617191B1D1E1F71
:102B00002020201F1E1D1C1A19171614131313132F
:102B100013141617191A1C1D1E1F2020201F1E1DFE
:102B20001B191716141312111112131416181A1C4C
:102B30001F212223242423221F1D1A16130F0C09E0
:102B4000070607090C1118202A3643516170808945
:102B5000939DA6AFB8C0C8D0D7DDE3E8EDF1F4F798
:102B6000F9FBFCFCFCFBFAF9F8F6F4F1EFEDEAE80E
:102B7000E6E4E2E0DFDEDDDCDCDCDCDDDDDEE0E166
:102B8000E2E4E6E7E9EBECEEEFF0F1F2F3F3F3F376
:102B9000F3F2F1F0EFEEECEBE9E7E6E4E2E1E0DEA0
:102BA000DDDDDCDCDCDCDDDEDFE0E2E4E6E8EAED16
:102BB000EFF1F4F6F8F9FAFBFCFCFCFBF9F7F4F1A1
:102BC000EDE8E3DDD7D0C8C0B8AFA69D9389807784
:102BD0006D635A514840383029231D18130F0C09D2
:102BE0000705040404050607080A0C0F111316183C
:102BF0001A1C1E2021222324242424232322201FC4
:102C00001E1C1A191715141211100F0E0D0D0D0D93
:102C10000D0E0F101112141517191A1C1E1F202249
:102C2000232324242424232221201E1C1A181613B3
:102C3000110F0C0A080706050404040507090C0F08
:102C400013181D232930384048515A636D77808608
:102C50008D939AA0A7ADB3B9BFC4CACFD4D9DDE1D3
:102C6000E5E9EDF0F2F5F7F9FBFCFEFEFFFFFFFFF3
:102C7000FFFFFEFDFCFBF9F8F6F5F3F1EFEDECEAF2
:102C8000E8E6E5E3E2E0DFDEDDDCDBDBDADADADA58
:102C9000DADBDBDCDDDEDFE0E2E3E5E6E8EAECED13
:102CA000EFF1F3F5F6F8F9FBFCFDFEFFFFFFFFFF88
:102CB000FFFEFEFCFBF9F7F5F2F0EDE9E5E1DDD909
:102CC000D4CFCAC4BFB9B3ADA7A09A938D86807A7A
:102CD000736D666059534D47413C36312C27231F95
:102CE0001B1713100E0B0907050402020101000156
:102CF00001010203040507080A0B0D0F1113141636
:102D0000181A1B1D1E2021222324252526262626AF
:102D100026252524232221201E1D1B1A18161413D4
:102D2000110F0D0B0A080705040302010101000140
:102D3000010202040507090B0E1013171B1F23279E
:102D40002C31363C41474D535960666D737A807E15
:102D50007C7A78767472706E6C6A68666462605EA3
:102D60005C5A58565452504E4C4A48464442403E93
:102D70003C3A38363432302E2C2A28262422201E83
:102D80001C1A18161412100E0C0A0806040200026F
:102D90000406080A0C0E10121416181A1C1E202203
:102DA0002426282A2C2E30323436383A3C3E4042F3
:102DB0004446484A4C4E50525456585A5C5E6062E3
:102DC0006466686A6C6E70727476787A7C7E8082D3
:102DD0008486888A8C8E90929496989A9C9EA0A2C3
:102DE000A4A6A8AAACAEB0B2B4B6B8BABCBEC0C2B3
:102DF000C4C6C8CACCCED0D2D4D6D8DADCDEE0E2A3
:102E0000E4E6E8EAECEEF0F2F4F6F8FAFCFEFFFE97
:102E1000FCFAF8F6F4F2F0EEECEAE8E6E4E2E0DEE2
:102E2000DCDAD8D6D4D2D0CECCCAC8C6C4C2C0BED2
:102E3000BCBAB8B6B4B2B0AEACAAA8A6A4A2A09EC2
:102E40009C9A98969492908E8C8A88868482807EB2
:102E50007C7A78767472706E6C6A68666462605EA2
:102E60005C5A58565452504E4C4A48464442403E92
:102E70003C3A38363432302E2C2A28262422201E82
:102E80001C1A18161412100E0C0A0806040201026D
:102E90000406080A0C0E10121416181A1C1E202202
:102EA0002426282A2C2E30323436383A3C3E4042F2
:102EB0004446484A4C4E50525456585A5C5E6062E2
:102EC0006466686A6C6E70727476787A7C7E8082D2
:102ED0008486888A8C8E90929496989A9C9EA0A2C2
:102EE000A4A6A8AAACAEB0B2B4B6B8BABCBEC0C2B2
:102EF000C4C6C8CACCCED0D2D4D6D8DADCDEE0E2A2
:102F0000E4E6E8EAECEEF0F2F4F6F8FAFCFEFFFE96
:102F1000FCFAF8F6F4F2F0EEECEAE8E6E4E2E0DEE1
:102F2000DCDAD8D6D4D2D0CECCCAC8C6C4C2C0BED1
:102F3000BCBAB8B6B4B2B0AEACAAA8A6A4A2A09EC1
:102F40009C9A98969492908E8C8A88868482807EB1
:102F50007C7A78767472706E6C6A68666462605EA1
:102F60005C5A58565452504E4C4A48464442403E91
:102F70003C3A38363432302E2C2A28262422201E81
:102F80001C1A18161412100E0C0A0806040201026C
:102F90000406080A0C0E10121416181A1C1E202201
:102FA0002426282A2C2E30323436383A3C3E4042F1
:102FB0004446484A4C4E50525456585A5C5E6062E1
:102FC0006466686A6C6E70727476787A7C7E8082D1
:102FD0008486888A8C8E90929496989A9C9EA0A2C1
:102FE000A4A6A8AAACAEB0B2B4B6B8BABCBEC0C2B1
:102FF000C4C6C8CACCCED0D2D4D6D8DADCDEE0E2A1
:10300000E4E6E8EAECEEF0F2F4F6F8FAFCFEFFFE95
:10301000FCFAF8F6F4F2F0EEECEAE8E6E4E2E0DEE0
:10302000DCDAD8D6D4D2D0CECCCAC8C6C4C2C0BED0
:10303000BCBAB8B6B4B2B0AEACAAA8A6A4A2A09EC0
:103040009C9A98969492908E8C8A88868482807EB0
:103050007C7A78767472706E6C6A68666462605EA0
:103060005C5A58565452504E4C4A48464442403E90
:103070003C3A38363432302E2C2A28262422201E80
:103080001C1A18161412100E0C0A0806040201026B
:103090000406080A0C0E10121416181A1C1E202200
:1030A0002426282A2C2E30323436383A3C3E4042F0
:1030B0004446484A4C4E50525456585A5C5E6062E0
:1030C0006466686A6C6E70727476787A7C7E8082D0
:1030D0008486888A8C8E90929496989A9C9EA0A2C0
:1030E000A4A6A8AAACAEB0B2B4B6B8BABCBEC0C2B0
:1030F000C4C6C8CACCCED0D2D4D6D8DADCDEE0E2A0
:10310000E4E6E8EAECEEF0F2F4F6F8FAFCFEFFFE94
:10311000FCFAF8F6F4F2F0EEECEAE8E6E4E2E0DEDF
:10312000DCDAD8D6D4D2D0CECCCAC8C6C4C2C0BECF
:10313000BCBAB8B6B4B2B0AEACAAA8A6A4A2A09EBF
:103140009C9A98969492908E8C8A88868482807EAF
:103150007D7A78767472706E6C6A68666462605E9E
:103160005C5A58565452504E4C4A48464442403E8F
:103170003C3A38363432302E2C2A28262422201E7F
:103180001C1A18161412100E0C0A0806040201026A
:103190000406080A0C0E10121416181A1C1E2022FF
:1031A0002426282A2C2E30323436383A3C3E4042EF
:1031B0004446484A4C4E50525456585A5C5E6062DF
:1031C0006466686A6C6E70727476787A7D7E8082CE
:1031D0008386888A8C8E90929496989A9C9EA0A2C0
:1031E000A4A6A8AAACAEB0B2B4B6B8BABCBEC0C2AF
:1031F000C4C6C8CACCCED0D2D4D6D8DADCDEE0E29F
:10320000E4E6E8EAECEEF0F2F4F6F8FAFCFEFFFE93
:10321000FCFAF8F6F4F2F0EEECEAE8E6E4E2E0DEDE
:10322000DCDAD8D6D4D2D0CECCCAC8C6C4C2C0BECE
:10323000BCBAB8B6B4B2B0AEACAAA8A6A4A2A09EBE
:103240009C9A98969492908E8C8A88868382807EAF
:103250007D7B78767572706E6C6A68666462605E9B
:103260005C5A58565452504E4C4A48464442403E8E
:103270003C3A38363432302E2C2A28262422201E7E
:103280001C1A18161412100E0C0A08070402010268
:103290000407080A0C0E10121416181A1C1E2022FD
:1032A0002426282A2C2E30323436383A3C3E4042EE
:1032B0004446484A4C4E50525456585A5C5E6062DE
:1032C0006466686A6C6E70727576787B7D7E8082CB
:1032D0008385888A8B8E90929496989A9C9EA0A2C1
:1032E000A4A6A8AAACAEB0B2B4B6B8BABCBEC0C2AE
:1032F000C4C6C8CACCCED0D2D4D6D8DADCDEE0E29E
:10330000E4E6E8EAECEEF0F2F4F6F8F9FCFEFFFE93
:10331000FCF9F8F6F4F2F0EEECEAE8E6E4E2E0DEDE
:10332000DCDAD8D6D4D2D0CECCCAC8C6C4C2C0BECD
:10333000BCBAB8B6B4B2B0AEACAAA8A6A4A2A09EBD
:103340009C9A98969492908E8B8A88858382807FAF
:103350007D7A78767473716E6C6A68676462605E99
:103360005C5B58565452504E4C4A48464442403E8C
:103370003C3A38363432302E2C2A28262422211E7C
:103380001C1A18171512100E0C0B09060402020263
:103390000406090B0C0E10121517181A1C1E2122F8
:1033A0002426282A2C2E30323436383A3C3E4042ED
:1033B0004446484A4C4E50525456585B5C5E6062DC
:1033C0006467686A6C6E71737476787A7D7F8081C9
:1033D0008386888A8C8D8F92949698999C9EA0A2C1
:1033E000A4A5A8AAACAEB0B2B4B6B8BABCBEC0C2AE
:1033F000C4C6C8CACCCED0D2D4D6D8DADCDEDFE29E
:10340000E4E6E8E9EBEEF0F2F4F5F7FAFCFEFEFE96
:10341000FCFAF7F5F4F2F0EEEBE9E8E6E4E2DFDEE1
:10342000DCDAD8D6D4D2D0CECCCAC8C6C4C2C0BECC
:10343000BCBAB8B6B4B2B0AEACAAA8A5A4A2A09EBD
:103440009C99989694928F8D8C8A88868381807FB0
:103450007D7B79767472706E6D6B69676462605E95
:103460005C5B59575552504E4C4A49474543403E84
:103470003C3A38363533312E2C2A28262423211F76
:103480001C1A18161413110F0D0A08060403020360
:103490000406080A0D0F11131416181A1C1F2123F5
:1034A0002426282A2C2E31333536383A3C3E4043E8
:1034B0004547494A4C4E50525557595B5C5E6062D5
:1034C0006467696B6D6E70727476797B7D7F8081C5
:1034D0008385878A8C8E9092939597999C9EA0A2C3
:1034E000A4A5A7A9ABAEB0B2B4B6B7B9BBBDC0C2B4
:1034F000C4C6C8CACBCDCFD2D4D6D8DADCDDDFE1A2
:10350000E4E6E8EAECEDEFF1F3F6F8FAFCFDFEFD97
:10351000FCFAF8F6F3F1EFEDECEAE8E6E4E1DFDDE2
:10352000DCDAD8D6D4D2CFCDCBCAC8C6C4C2C0BDCF
:10353000BBB9B7B6B4B2B0AEABA9A7A5A4A2A09EC2
:103540009C9997959392908E8C8A87858381807EB3
:103550007C7A78767472716F6D6B69676462605E95
:103560005C5A58565553514F4D4B48464442403E85
:103570003C3A39373533312F2C2A28262422201E75
:103580001D1B19171513100E0C090706040403045C
:10359000040607090C0E10131517191B1D1E2022F7
:1035A0002426282A2C2F31333537393A3C3E4042E5
:1035B0004446484B4D4F51535556585A5C5E6062D5
:1035C0006467696B6D6F71727476787A7C7E8082C5
:1035D0008486888A8C8E8F91939597999C9EA0A2C1
:1035E000A4A6A8AAABADAFB1B3B5B8BABCBEC0C2B1
:1035F000C4C6C7C9CBCDCFD1D4D6D8DADCDEE0E2A1
:10360000E3E5E7E9EBEDF0F2F4F7F9FAFCFCFDFC99
:10361000FCFAF9F7F4F2F0EDEBE9E7E5E3E2E0DEDE
:10362000DCDAD8D6D4D1CFCDCBC9C7C6C4C2C0BED0
:10363000BCBAB8B5B3B1AFADABAAA8A6A4A2A09EC0
:103640009C99979593918F8E8C8A88868482807EB0
:103650007C7A78767472706E6C6A68676563615F95
:103660005D5B59575553514E4C4A48464442403E83
:103670003C3A38363533312F2D2B29272523211F6E
:103680001C1A181513110F0D0B090807060606065C
:10369000060708090B0D0F111315181A1C1F2123FB
:1036A0002527292B2D2F31333536383A3C3E4042E1
:1036B0004446484A4C4E51535557595B5D5F6163D0
:1036C0006567686A6C6E70727476787A7C7E8082C8
:1036D0008486888A8C8E9092949698999B9D9FA1BF
:1036E000A3A5A7A9ABADAFB2B4B6B8BABCBEC0C2B1
:1036F000C4C6C8CACBCDCFD1D3D5D7D9DBDDDFE1A6
:10370000E4E6E8EBEDEFF1F3F5F7F8F9FAFAFAFA97
:10371000FAF9F8F7F5F3F1EFEDEBE8E6E4E1DFDDD8
:10372000DBD9D7D5D3D1CFCDCBCAC8C6C4C2C0BED2
:10373000BCBAB8B6B4B2AFADABA9A7A5A3A19F9DC3
:103740009B9998969492908E8C8A88868482807EAB
:103750007C7A787673716F6D6B6967656361605EA3
:103760005C5A5857555351504E4C4A484644424073
:103770003E3C3A373533302E2C29272522201E1C7B
:103780001917151412100F0D0C0B0A0A0909090953
:10379000090A0A0B0C0D0F1012141517191C1E2004
:1037A000222527292C2E303335373A3C3E404244DF
:1037B00046484A4C4E5051535557585A5C5E6061CA
:1037C000636567696B6D6F717376787A7C7E8082D2
:1037D0008486888A8D8F91939597999B9D9FA0A2AF
:1037E000A4A6A8A9ABADAFB0B2B4B6B8BABCBEC0BF
:1037F000C2C4C6C9CBCDD0D2D4D7D9DBDEE0E2E497
:10380000E7E9EBECEEF0F1F3F4F5F6F6F7F7F7F79E
:10381000F7F6F6F5F4F3F1F0EEECEBE9E7E4E2E0CD
:10382000DEDBD9D7D4D2D0CDCBC9C6C4C2C0BEBCD2
:10383000BAB8B6B4B2B0AFADABA9A8A6A4A2A09FC7
:103840009D9B99979593918F8D8A88868482807F9E
:103850007D7B7A78767473716F6D6B696765636170
:103860005F5D5B59575452504D4B494644423F3D72
:103870003A383633312F2C2A28262422201E1C1AAF
:1038800019171614131211100F0F0E0E0D0D0D0D2A
:103890000D0E0E0F0F10111213141617191A1C1EED
:1038A00020222426282A2C2F313336383A3D3F4215
:1038B0004446494B4D50525457595B5D5F616365B7
:1038C00067696B6D6F71737476787A7B7D7F8081A9
:1038D000838586888A8C8D8F91939597999B9D9FE0
:1038E000A1A3A5A7A9ACAEB0B3B5B7BABCBEC1C3BE
:1038F000C6C8CACDCFD1D4D6D8DADCDEE0E2E4E661
:10390000E7E9EAECEDEEEFF0F1F1F2F2F3F3F3F3C5
:10391000F3F2F2F1F1F0EFEEEDECEAE9E7E6E4E2E2
:10392000E0DEDCDAD8D6D4D1CFCDCAC8C6C3C1BE9A
:10393000BCBAB7B5B3B0AEACA9A7A5A3A19F9D9BD8
:0E39400099979593918F8D8C8A8886858381C7
:00000001FF
