:020000020000FC
:100000000C94F1040C942A000C942A000C942A00FD
:100010000C9425010C942A000C942A000C942A00BC
:100020000C942A000C942A000C942A000C942A00A8
:100030000C942A000C947C020C942A000C942A0044
:100040000C942A000C942A000C942A000C942A0088
:100050000C942A00189519BC0E00669C0F00098AA2
:100060001000CE8511008B90120025AB13008DD6A9
:100070001400C2131600D4631700E3C718001D4113
:100080001A00C5D01B0031781D00010101010101DA
:100090000101010102020202020202020202020244
:1000A000020202020202020203040404040405051F
:1000B00005050606060606060708080809090A0ACD
:1000C0000A0A0B0C0C0C0C0D0E0F1011121213144B
:1000D00015161718191A1B1C1E2021222324262846
:1000E0002A2C2E30323436383A404244484C4F5253
:1000F00055585D6165686C70767E858A90969DA482
:10010000ABB0BAC4CED8E0E8F4FF0DC7C59A5778B3
:10011000915DC1489138FC2B3322971AAD1413100E
:10012000800CB8098F07E00592048D03C3022602F4
:10013000AB014C010201C9009C0079005E0049003E
:1001400039002C0023001B001300000001010101F5
:100150000101010101010202020202020203030382
:100160000303040404040404050505050606060645
:100170000606070707070707080808080808090907
:10018000090909090A0A0B0B0C0C0C0C0D0D0E0EBB
:100190000F0F101011111212131314141515161736
:1001A0001818191A1B1C1D1D1E1F20202121222278
:1001B0002324252526272828292A2B2C2D2D2E2FB0
:1001C00030303131323233343535363738383939E9
:1001D0003A3B3C3C3D3E3F40424344444546474712
:1001E00048494A4A4B4C4D4E4F5051525354555624
:1001F0005758595A5B5C5E5F60616264646566670C
:10020000686A6B6D6E6F7073737577787A7B7D7EBD
:100210007F808283858788898C8E9091939496982D
:100220009A9C9EA0A2A4A6A8ABAEB1B3B6B8BABB26
:10023000BDBFC1C3C6C9CCCED1D3D6D9DDE0E3E5BD
:10024000E8EBEEF0F2F4F6F9FCFF0F930FB70F9323
:100250001F932F933F934F935F936F937F93EF93EE
:10026000FF930F921F92509177007091780075FF65
:100270000CC01091BD0043FC109544FC109546FC49
:10028000109547FC1095110F3DC0142D77FF2EC01F
:1002900076FF4091D50076FD4091D40070FF1EC0DE
:1002A0006091D300EAEEF4E2E10FF61FC895042F47
:1002B000010F102DEAEEF4E1E00FF61FC8950027BC
:1002C000100D081D140F081D1F5F080910F410E021
:1002D00000E0002309F01FEF105814C0141718F0A5
:1002E0001FEF10580FC010E010580CC0142D70FFF5
:1002F00008C06091D300EAEEF4E2E10FF61FC89562
:10030000102D10586091D30070FF60E0072D73FF2F
:1003100007C0EAEEF4E3E00FF61FC895002D06C013
:10032000EAEEF4E4E00FF61FC895002D005855FDE5
:10033000102772FF00E060E81603F00160E8060392
:10034000E00DF11D0093D6008F01159507951595C9
:100350000795780109191A0913F401E010E8609172
:100360000E01409189005FEF541B569520E2520F19
:10037000651B08F460E0492D5A2D3091DD00209175
:10038000DC00421B530B13F441E050E8209177004E
:1003900024FF02C09A010FC056039001469F210D11
:1003A000381D001C08F423958894220F331F88946D
:1003B000220F331F9901020F131F13F40FEF1FE7D2
:1003C000409189002091770024FD40918A00140318
:1003D0009001049F210D381D001C08F42395920EF6
:1003E000A31E23F43FEF2FE7932EA22E3A2D292DA3
:1003F000E091DC00F091DD002E1B3F0B13F421E0B7
:1004000030E8409189002091770024FD40918A00D6
:1004100034039001249F210D381DE20FF31F13F4C4
:10042000EFEFFFE7E093DC00F093DD000E2F1F2FCE
:100430002091770024FF03C0E01AF10A8701E0E071
:10044000F0E020918B002F3F49F4E02FF12F08C0FE
:1004500015950795220F10F4E00FF11F2223C1F725
:10046000939AF0589298F5BB9398939A929AE5BB19
:100470009398939AEDECF0E00191200E0191301EDB
:100480000191401E0191500E0191601E0191701E5C
:10049000E0917800E5FD21C0E2FF1FC0E091770008
:1004A000E1FF10E0E1FD1FEF1123B9F00091D6004C
:1004B000010390010091CD0011273003110B210C95
:1004C000311E411E0091CE003003200C311C411E14
:1004D0000091CF003003300C411C1F900F90FF9112
:1004E000EF917F916F915F914F913F912F911F916C
:1004F0000F910FBF0F9118950F930FB70F930CB17A
:10050000579878941F930023F2F4102F107F10381F
:1005100051F0103941F0103B31F0103E21F010E065
:100520001093600000C1109360000F70039500935A
:10053000610010917A00112329F0101719F010E0D2
:1005400010936000F0C010916000103819F011385D
:1005500039F00AC013951093600000936200E3C065
:100560001A951093600010C0103919F0113939F044
:100570003BC013951093600000936200D4C01A959D
:10058000109360000023F9F400916200109165005F
:10059000011719F41FEF1093650010916400011703
:1005A00049F4109165001F3F31F0109364001FEF74
:1005B00010936500B8C01FEF1093640010E0109313
:1005C0009F00919AB0C00093630010916400109353
:1005D0006500109162001093640011E010939F0079
:1005E0001093A00091989FC0103B19F0113B39F077
:1005F00081C01395109360000093620094C01A9517
:100600001093600010916200AF93BF93103320F0FD
:10061000103418F01035D0F064C0AEEDB0E0A10F8A
:10062000B81D000F0C9310531770AFE8B0E0A10F86
:10063000B81D0C91A7E9B0E0A10FB81D0C93ABE673
:10064000B0E0A10FB81D10E01C9351C01054183039
:1006500020F11770A091780006FB103011F4A0F97A
:1006600019C0113011F4A1F915C0123011F4A2F91A
:1006700011C0133011F4A3F90DC0143011F4A4F912
:1006800009C0153011F4A5F905C0163011F4A6F90A
:1006900001C0A7F9A09378002AC01770A091770035
:1006A00006FB103011F4A0F919C0113011F4A1F9B2
:1006B00015C0123011F4A2F911C0133011F4A3F9CE
:1006C0000DC0143011F4A4F909C0153011F4A5F9C6
:1006D00005C0163011F4A6F901C0A7F9A093770060
:1006E00006C0AEEDB0E0A10FB81D000F0C93BF9196
:1006F000AF9119C0103E19F0113E39F014C0139596
:1007000010936000009362000EC01A951093600071
:1007100010916200110F110F001F00581093660016
:100720000093670000C01F910F910FBF0F91579A60
:1007300018950F9302E30A95F1F70F91089527B9E1
:10074000369A0895349BFECF349A04B115B11695AC
:100750000795169507950895222331F02F93159547
:1007600007952A95E1F72F910895442341F04F937F
:1007700036952795179507954A95D1F74F91089586
:10078000442341F04F93000F111F221F331F4A953E
:10079000D1F74F910895019F8001089507FB07FD50
:1007A0000195019F80012EF4009510950894081D75
:1007B000181D0895EF934427552788279927AA27BE
:1007C000BB27CC27DD270FC07695679530F4800FC7
:1007D000911FA21FB31FC41FD51F000F111F221F7F
:1007E000331F441F551FE62FE72B71F70A2F1B2FCE
:1007F0002C2F3D2FEF910895EE0FF0E0BB96EE0FFA
:10080000FF1FC895002D3196C895102D3196C895BB
:10081000202D3196C895302D08956F937F93E72F43
:10082000EBDF802F912FA22FB32FE72FE395E4DF8B
:10083000081B190B2A0B3B0B8F939F93AF93BF930E
:10084000762F60E04F93B6DF4F91BF91AF919F91AC
:100850008F91080F191F2A1F3B1F7F916F910895D9
:1008600040E002C07C5043957C30E0F70895EE0FE5
:10087000FF1FE00FF81DC8950895E00FF81DEE0F5B
:10088000FF1FC895202D3196C895302D08950695E7
:1008900006950695E5E8F0E0F0DF002711270895BA
:1008A00060E0702F703718F0703938F00CC000E03D
:1008B00010E221E0E0E0F0E00BC008E011E220E00F
:1008C000ECE8FFE605C007EB1DE121E0E7E6F2EE0C
:1008D00030E070DF0E0F1F1F0895E199FECFBFB605
:1008E000F8942FBB1EBB0DBBE29AE19ABFBE0895E0
:1008F000E199FECFBFB6F8942FBB1EBBE09A0DB3B3
:10090000BFBE0895002700936B0000936C00009316
:100910006D0000936E0000936F00009370000093D1
:1009200071000093720000918F0000939700009176
:10093000900000939800009191000093990000911D
:10094000920000939A000091930000939B00009105
:10095000940000939C000091950000939D000091ED
:10096000960000939E000895000F000F000F000FE7
:10097000102F20E030E3BCDFCEEDD0E0C30FD81D58
:100980000883139533953034B1F700911C0100931F
:10099000770000911D01009378000091730000938F
:1009A00075000091740000937600ACDF0895CBE6EB
:1009B000C40FD0E0288120FD12C0302FC7E9C40F3A
:1009C000D0E01881311B0AF43195353030F02160C8
:1009D000CBE6C40FD0E0288302C010E0089511E0F8
:1009E0000895F89400913400006804BF04BF0FE537
:1009F00018E00DBF1EBF882422243324442455242C
:100A0000662477249924AA2422273327EE27FF2758
:100A100005E00093CC0000E000935E0100935F01CD
:100A2000009360010093610100937A0000937900C4
:100A30000093D70000939F000093A00000938B00C9
:100A40000093A8000093A9000093AA0000938D00D2
:100A50000093850000938600009387000093660052
:100A6000009367000093DF000093690002E00093A9
:100A700088000FEF00936A000093890000938A00BA
:100A800000936400009365000EE514EB26E70093E5
:100A9000BB001093BC002093BD0000E010E020E0FC
:100AA0000093BE001093BF002093C0000FEF1FEF14
:100AB0002FEF0093C1001093C2002093C30024E1E4
:100AC0000093C4001093C5002093C60024E6009351
:100AD000C7001093C8002093C90000270093AF00FF
:100AE0000093B4000093A70000937B0000937C0068
:100AF0000093680000E00ABB0FEF0BBB00E007BBF0
:100B00000FEF08BB0FEF04BB00E005BB0EE001BB1D
:100B10000CEF02BB919A939A929800E003BF04E015
:100B20000EBD06E303BD0AE005BD00E000BD0FE118
:100B300009B900E90AB906E806B900E809BF7894DE
:100B400020918D00FCDDCFE8C20FD0E0FBDD0883F3
:100B50002395F5DDC395F6DD08832395F0DDC39578
:100B6000F1DD08832395EBDDC395ECDD0883239548
:100B7000E6DDC395E7DD08832395E1DDC395E2DD7E
:100B800008832395DCDDC395DDDD08832395D7DD60
:100B9000C395D8DD088320E020938D00D0DD23E0CD
:100BA0001EEFA6DEE1DE23E01FEFA2DE00937A0057
:100BB0000CB51DB50093A1001093A2000CB51DB596
:100BC0002091A1003091A200021B130B0A5618417C
:100BD00008F415C100917900002329F00093600109
:100BE0000FE300935F01009160010023D1F00091B9
:100BF0005E0110E4010F003830F010915F011A958A
:100C000041F0919A0AC010915F011A9511F09198E4
:100C100004C0919A00E00093600100935E0110937C
:100C20005F010CB51DB50093A1001093A20006B39F
:100C30000F7110B3107F110F010F30E040E050E052
:100C400000FB47F901FB43F902FB46F903FB41F9BD
:100C500004FB44F905FB36F906FB33F907FB30F9D1
:100C600030937300409374005093790010916A00A0
:100C700010FF07C030937500409376001127109342
:100C80006A0000917300109175000117C9F120915D
:100C90007700EE27102710FF06C000FB20F90F9306
:100CA00031DE0F91E0E111FF03C001FB21F9EFE01C
:100CB00012FF03C002FB22F9EEE013FF03C003FBA7
:100CC00023F9EDE014FF03C004FB24F9E8E015FF6D
:100CD00003C005FB25F9E7E016FF03C006FB26F974
:100CE000E6E017FF03C007FB27F9E5E0E0936101A9
:100CF00010916001123011F020937700009375007D
:100D000000917400109176000117B1F120917800E4
:100D1000EE27102710FF03C000FB20F9ECE011FFC5
:100D200003C001FB21F9EBE012FF03C002FB22F933
:100D3000EAE013FF03C003FB23F9E9E014FF03C05B
:100D400004FB24F9E4E015FF03C005FB25F9E3E00B
:100D500016FF03C006FB26F9E2E017FF03C007FBFE
:100D600027F9E1E0E093610110916001123011F088
:100D70002093780000937600109160011123F9F11F
:100D8000009161010023D9F1113029F1123031F0C5
:100D90000A9523E01EEFA1DDE7DD27C01091D80002
:100DA000112319F10A9523E01EEF97DD10E010934F
:100DB000D8001093D900000F000F000F000F009310
:100DC000DA000091770000931C01009178000093F5
:100DD0001D0198DD0AC00395013109F401E00A956F
:100DE00000937A0023E01FEF78DD919A00E00093F2
:100DF000600100935E0100935F0100936101009127
:100E0000D80007FD20C0E1991EC02091D90010E351
:100E1000120FCEEDD0E0C10FD81D18810091DA007D
:100E2000020F30E03FBB0EBB1DBBBFB6F894E29A89
:100E3000E19ABFBE2F3021F023952093D90003C043
:100E40001FEF1093D8007EDC20918D0020938E0040
:100E5000CFE8C20FD0E008832395277020938D0040
:100E60006EDC40918E00403069F4A1DD112311F059
:100E700000930E0100910E01063F08F006EF00936B
:100E80000E01A1C0413031F492DD112339F10093FC
:100E90000F0199C0463099F48ADD112311F00093B7
:100EA0001401009114010695025110F404E004C0ED
:100EB000043008F001C004E00093D50084C047303E
:100EC00071F475DD112311F00093150100911501E6
:100ED000E7DC105800937B0010937C0074C03091C5
:100EE000770030FD0C949A07423031F460DD112315
:100EF00041F10093100125C0433041F458DD112326
:100F0000C1F000936800009311015DC0443031F4DA
:100F10004EDD1123D9F10093120138C0453049F458
:100F200046DD112331F00695102F1695010F009321
:100F3000130149C04230D9F43ADD112311F0009376
:100F40001801009118013091780034FF08C03FEF7C
:100F500030938300309382000093840034C030E0EB
:100F60003093830000938200009384002CC04330B0
:100F700031F41DDD112339F10093190124C04430EF
:100F8000D9F415DD112311F000931A0100911A0113
:100F90003091780034FF08C03FEF30937F003093EA
:100FA0007E00009380000FC030E030937F000093FC
:100FB0007E000093800007C0453029F4F8DC11233F
:100FC00011F000931B016CB57DB5262F372F0091D2
:100FD000A3001091A400601B710B2093A300309319
:100FE000A4006093A5007093A600009110010095E5
:100FF0004EDC6091A5007091A600DCDB3091B00062
:101000004091B1005091B2005058F0E0E091AF0033
:10101000EE23A1F46091C1007091C2008091C300E1
:10102000300F411F521F20F0361747075807C8F0EE
:10103000362F472F582FE1E0F1E013C06091BE003A
:101040007091BF008091C000301B410B520B20F00B
:1010500063177407850728F0362F472F582FE0E0D5
:10106000F1E0E093AF0050583093B0004093B100EE
:101070005093B20000E010E020E0E0917700E2FF42
:1010800009C0FF23B1F00091BB001091BC0020917A
:10109000BD002F770093BE001093BF002093C000C7
:1010A0000095109520950093C1001093C2002093E5
:1010B000C3000091770002FF05C0FF2361F050914B
:1010C000BD0007C00091770003FF03C0550F5FE725
:1010D000581D5093B300009111011091DF000117CA
:1010E00008F4012F009368000091140106950695FD
:1010F0000095CDDB6091A5007091A6005BDB30917F
:10110000B5004091B6005091B7005058F0E0E09122
:10111000B400EE23A1F46091C7007091C8008091E3
:10112000C900300F411F521F20F0361747075807DC
:10113000C8F0362F472F582FE1E0F1E013C060913F
:10114000C4007091C5008091C600301B410B520B4A
:1011500020F063177407850728F0362F472F582F84
:10116000E0E0F1E0E093B40050583093B5004093D4
:10117000B6005093B70050585093D4001091A70078
:1011800000911B01113049F000917E00123029F0CE
:1011900000918000143009F035C079DB6091A50022
:1011A0007091A60007DB3091A8004091A9005091F2
:1011B000AA006091A7006430A9F0623049F0300FB6
:1011C000411F521FC8F43FEF4FEF5FEF02E012C024
:1011D000301B410B520B50F060917F00651760F09F
:1011E00003E008C0301B410B520B30F430E040E00C
:1011F00050E000E00093A7003093A8004093A900BE
:101200005093AA001091AB0000911901113049F0E0
:1012100000918200123029F000918400143009F00E
:1012200035C035DB6091A5007091A600C3DA30911E
:10123000AC004091AD005091AE006091AB006430C5
:10124000A9F0623049F0300F411F521FC8F43FEF40
:101250004FEF5FEF02E012C0301B410B520B50F01A
:1012600060918300651760F003E008C0301B410BFC
:10127000520B30F430E040E050E000E00093AB006F
:101280003093AC004093AD005093AE0000919F00AE
:10129000002331F404E00093A7000093AB001FC0CB
:1012A0000091A0000023D9F000E00093A00000917D
:1012B0008800002319F00A950093880001E000934C
:1012C000A7000093AB000FEF1FEF2FE70093B000D4
:1012D0001093B1002093B20001E00093AF0090E0C2
:1012E00060E0709164007F3F11F4A1C07C507136C2
:1012F000E8F701C0745F7432E8F37C50972F98517F
:10130000969596959093D30090918500A091860034
:10131000B091870000918800002381F500911301AE
:10132000B6DA6F937F93622F732F00E010E0209165
:10133000A5003091A60043E018DA3CDA7F916F9166
:10134000302F412F522F90918500A0918600B091AF
:1013500087006A177B0738F4931BA40BB50B6A1739
:101360007B0750F006C0930FA41FB51F6A177B07B9
:1013700018F490E0A62FB72F6A2F7B2F909385004B
:10138000609386007093870000916600109167005B
:1013900025E0E2D9202F312F020F131F020F131F58
:1013A000600F711F70938C000091770007FF0C9401
:1013B000F5090091B300109168002091770026FF95
:1013C00010E0212F1695203810F01058120FE6D992
:1013D00024E0C2D9600F711F77231AF460E070E037
:1013E00004C07D3610F060E07CE66F937F9338DABE
:1013F00014DAC6D91093CD002093CE003093CF00DD
:101400007F916F9100917B0010917C0024E0A4D922
:10141000600F711F0091780001FD745F21DAFDD922
:10142000AFD91093D0002093D1003093D200E0E0E8
:10143000F0E00091770007FD0C942B0A0091B300B7
:10144000109168002091770026FF10E0A7D9E12FC6
:10145000F0E0111FFF0B0091AE0010911201019FEF
:101460008001001FE11FF81D00918C00000F005645
:101470001BEA94D920E017FD2FEFE10FF21F009136
:101480000F0111270E0F1F1F112312F400E002C0DD
:1014900009F00FEF0695E5E4F0E0E9D90092890044
:1014A0000AE0001A10F400E0002E00928A00009179
:1014B000AA00E5EAF0E0DBD9002D00938B00009153
:1014C000BB001091BC002091BD0027FB30F922FB2E
:1014D00040F934273695001F111F221F0093BB00CF
:1014E0001093BC002093BD0069CBF7FEFFFFFEFE0A
:1014F000FDFCFBFAF9F8F7F6F5F4F3F2F1F0EEED96
:10150000ECEBEAE9E8E7E6E5E4E3E2E1E0DFDEDD93
:10151000DCDBDAD9D8D7D6D5D4D3D1D0CFCECDCC89
:10152000CBCAC9C8C7C6C5C4C3C2C1C0BFBEBDBC83
:10153000BBBAB9B8B7B5B4B3B2B1B0AFAEADACAB7E
:10154000AAA9A8A7A6A5A4A3A2A1A09F9E9D9C9B73
:10155000999897969594939291908F8E8D8C8B8A73
:101560008988878685848382817F7E7D7C7B7A796A
:101570007877767574737271706F6E6D6C6B6A6963
:1015800068676664636261605F5E5D5C5B5A595860
:1015900057565554535251504F4E4D4C4B4A484755
:1015A000464544434241403F3E3D3C3B3A39383753
:1015B000363534333231302F2E2C2B2A292827264A
:1015C0002524232221201F1E1D1C1B1A1918171643
:1015D00015141312110F0E0D0C0B0A09080706053E
:1015E0000403020101000001087FF6FFFFFDFCFA81
:1015F000FAF9F8F7F6F5F4F3F2F1F0EFEEEDECEBC3
:10160000EAE9E8E7E6E4E3E3E2E1DFDEDDDDDCDAB8
:10161000D9D8D7D6D5D4D3D2D1D0CFCECDCCCBCAB2
:10162000C9C8C7C6C5C4C3C2C1C0BFBEBDBCBBBAA2
:10163000B9B8B7B6B5B4B3B2B1B0AFAEADACABAA92
:10164000A9A8A7A6A5A4A3A2A1A09F9E9D9C9B9A82
:10165000999897969594939291908F8E8D8C8B8A72
:101660008988878685848382817F7E7D7C7B7A7969
:101670007877767574737271706F6E6D6C6B6A6962
:101680006867666564636261605F5E5D5C5B5A5952
:101690005857565554535251504F4E4D4C4B4A4942
:1016A0004847464544434241403F3E3D3C3B3A3932
:1016B0003837363534333231302F2E2D2C2B2A2922
:1016C0002827262523222221201E1D1C1C1B191819
:1016D00017161514131211100F0E0D0C0B0A090812
:1016E0000706050503020000097FF7FFFEFDFCFB6E
:1016F000FAF9F8F7F6F5F4F3F2F0EFEEEDECEBEAC9
:10170000E9E8E7E6E5E4E3E2E1E0DFDEDDDCDBDAC1
:10171000D9D8D7D6D5D4D3D2D1D0CFCECDCCCBCAB1
:10172000C9C8C7C6C5C4C3C2C1C0BFBEBDBCBBBAA1
:10173000B9B8B7B6B5B4B3B2B1B0AFAEADACABAA91
:10174000A9A8A7A6A5A4A3A2A1A09F9E9D9C9B9A81
:10175000999897969594939291908F8E8D8C8B8A71
:101760008988878685848382817F7E7D7C7B7A7968
:101770007877767574737271706F6E6D6C6B6A6961
:101780006867666564636261605F5E5D5C5B5A5951
:101790005857565554535251504F4E4D4C4B4A4941
:1017A0004847464544434241403F3E3D3C3B3A3931
:1017B0003837363534333231302F2E2D2C2B2A2921
:1017C0002827262524232221201F1E1D1C1B1A1911
:1017D0001817161514131211100F0D0C0B0A090807
:1017E0000706050403020100087FF7FFFFFCFCFB6E
:1017F000FAF9F8F7F6F5F4F3F2F1F0EFEEEDECEBC1
:10180000EAE9E8E7E6E5E4E3E2E1E0DFDDDDDBDBB2
:10181000D9D9D7D6D5D4D3D2D1D0CFCECDCCCBCAAF
:10182000C9C8C7C6C5C4C3C2C1C0BFBEBDBCBBBAA0
:10183000B9B8B7B6B5B4B3B2B1B0AFAEADACABAA90
:10184000A9A8A7A6A5A4A3A2A1A09F9E9D9C9B9A80
:10185000999897969594939291908F8E8D8C8B8A70
:101860008988878685848382817F7E7D7C7B7A7967
:101870007877767574737271706F6E6D6C6B6A6960
:101880006867666564636261605F5E5D5C5B5A5950
:101890005857565554535251504F4E4D4C4B4A4940
:1018A0004847464544434241403F3E3D3C3B3A3930
:1018B0003837363534333231302F2E2D2C2B2A2920
:1018C00028262624242222201F1E1D1C1B1A19181C
:1018D00017161514131211100F0E0D0C0B0A090810
:1018E0000706050403030000087FF5FFFBFDF8FB76
:1018F000F7F7F7F4F5F3F3F1F0F0EEEEECEBEAE9DD
:10190000E9E7E6E5E4E4E2E1E0DFDEDDDCDBDAD9CD
:10191000D8D7D6D5D4D3D2D1D0CFCECDCCCBCAC9BF
:10192000C8C7C6C5C4C3C2C1C0BFBEBDBCBBBAB9AF
:10193000B8B7B6B5B4B3B2B1B0AFAEADACABAAA99F
:10194000A8A7A6A5A5A3A2A1A0A09E9D9C9B9B998C
:101950009997969594949291908F8F8D8D8B8A8A7A
:101960008888868685838381817F7E7E7C7C7A7968
:10197000797777757574727270706F6E6D6B6B6A54
:101980006968666664646362615F5F5E5D5C5A5A43
:10199000595857565554535251504F4E4D4C4B4A2F
:1019A000494847464544434241403F3E3D3C3B3A1F
:1019B000393837363534333231302F2E2D2C2B2A0F
:1019C000292827262524232221201F1E1D1B1B1A00
:1019D0001918161615141311110F0F0E0C0C0A0BF3
:1019E00008080804070204000A7FE9FFF1F5F7F090
:1019F000F2F3EEEFF0ECECECE9E9E9E7E6E6E4E33C
:101A0000E3E1E0E1DFDDDEDCDBDBD9D8D8D6D5D51C
:101A1000D4D2D2D1CFCFCECDCCCBCAC9C8C7C6C6FF
:101A2000C4C4C3C1C1C0BFBEBDBCBBBAB9B8B8B6DF
:101A3000B5B5B3B2B2B1AFAFAEADACABAAA9A8A7C2
:101A4000A6A5A4A4A3A1A1A09E9E9D9C9B9A9998A3
:101A500097969594939292908F8F8E8D8C8B8A8986
:101A60008887868584838281817F7E7E7D7C7B7A68
:101A700079787776757473727170706F6D6D6C6B49
:101A80006A696867666564636261615F5E5E5C5B2C
:101A90005B5A59585756555453525150504E4D4D0C
:101AA0004C4A4A494747464544434241403F3E3EEF
:101AB0003C3B3B3939383736353433323130302ED0
:101AC0002D2D2B2A2A292727262424232122201EB4
:101AD0001F1E1C1C1B1919181616161313130F1092
:101AE000110C0D0F080A0E00167FDCFFF3E9F0F36E
:101AF000EDE9EDEEE9E7EAE9E5E4E6E5E1E1E2E07A
:101B0000DEDEDEDCDADBDBD8D7D7D7D5D3D4D3D152
:101B1000D0D0CFCDCDCDCBCAC9C9C8C6C6C5C4C229
:101B2000C2C2C0BFBFBEBCBBBBBAB8B8B7B6B5B403
:101B3000B4B3B1B1B0AFADADADABAAAAA9A7A6A6DB
:101B4000A5A4A3A2A1A09F9F9E9C9C9B9A999898B4
:101B500096959494939191908F8E8D8D8B8A8A898E
:101B6000878786858483838180807F7E7C7C7B7A67
:101B700079787876757574727271706F6E6E6C6B41
:101B80006B6A69676766656463636160605F5E5D19
:101B90005C5B5A59595856555554525252504F4EF3
:101BA0004E4C4B4B4A4948474745444443414040CB
:101BB0003F3D3D3D3B3A39393736363534323232A6
:101BC000302F2F2E2C2B2C2A28282827242425237D
:101BD0002121211F1D1E1E1A191B1A161518161158
:101BE0001216120C0F160C00237FD0FCFFEFE7ED4E
:101BF000F3F1EAE7EAEDEBE6E4E6E8E5E1E0E2E26C
:101C0000E0DDDCDEDDDBD9D8D9D9D6D4D4D5D4D14A
:101C1000D0D0D0CFCDCBCBCBCAC8C7C7C7C5C3C226
:101C2000C2C2C1BFBEBEBEBCBAB9B9B9B7B6B5B5FE
:101C3000B4B3B1B1B0B0AEADACACABA9A8A8A7A6D7
:101C4000A5A3A3A3A2A09F9F9E9D9B9A9A9A9897B3
:101C500096969594929191908F8E8D8D8C8A89888D
:101C60008887868484848381807F7F7E7C7B7B7B66
:101C700079787777767573727271706F6E6E6D6B3F
:101C80006A6969686765656564626160605F5D5C1B
:101C90005C5C5A595857575654535352514F4F4EF4
:101CA0004E4C4B4A4A4948464646454341414140CD
:101CB0003E3D3D3D3C3A38383837353434343230A7
:101CC0002F2F2F2E2B2A2B2B292626272624222185
:101CD00023221F1D1D1F1E1A17191B191412151858
:101CE000150E0C12181000032F7FC1EEFFF9EBE365
:101CF000E4EBEFEDE7E2E1E5E7E6E2DEDDDFE1E0A0
:101D0000DDDAD8D9DBDAD8D5D3D4D5D5D3D0CECE79
:101D1000CFCFCECBC9C9C9C9C8C6C4C4C4C4C3C146
:101D2000BFBEBEBEBEBCBAB9B9B9B8B7B5B4B3B31D
:101D3000B3B2B0AEAEAEAEACABA9A9A8A8A7A5A4ED
:101D4000A3A3A3A2A09F9E9E9D9D9B9998989897C0
:101D5000969493939392918F8E8D8D8D8B8A898893
:101D60008887868583828282817F7E7D7D7D7C7A65
:101D70007978777776757472727271706E6D6C6C3B
:101D80006C6B6968676767666462626161605F5D0A
:101D90005C5C5C5B5A5857575656545351515151DD
:101DA0004F4D4C4C4C4B4A484746464645434141B3
:101DB0004141403E3C3B3B3B3B393736363636347F
:101DC00031303031312F2C2A2A2B2C2A272524265A
:101DD0002725221F1E2022211D19181A1E1D181228
:101DE00010141B1C140600113E7FB6E1F9FFF7EB3F
:101DF000E2E0E4E9EDECE7E2DEDEE0E3E4E2DEDBB4
:101E0000D9D9DBDCDCD9D6D4D3D3D4D5D4D1CFCD7A
:101E1000CCCDCECDCCCAC7C6C6C6C7C6C4C2C0BF4D
:101E2000BFC0C0BFBDBBB9B9B9B9B8B7B5B3B2B21D
:101E3000B2B2B1B0AEACABABABABAAA8A6A5A5A5F0
:101E4000A4A4A3A19F9E9E9E9E9D9B9A98979797C0
:101E500097959492919090908F8E8D8B8A8A8A8993
:101E60008887858483838382817F7E7D7C7C7C7B65
:101E70007A787776757575747271706F6F6F6E6D35
:101E80006B6A686868686765646261616161605E09
:101E90005C5B5B5A5A5A5957555454545453514FDA
:101EA0004E4D4D4D4D4C4A484746464646444240AD
:101EB0003F3F40403F3D3B3938393939383533327F
:101EC00031323332302E2B2A2B2C2C2B2926232354
:101ED00024262624211D1B1C1F21211D1813121628
:101EE0001B1F1D140800061E497FABD1EDFCFFF936
:101EF000F0E6DFDEE0E4E9EBEAE7E2DDDADADBDEBA
:101F0000DFE0DEDBD8D5D3D3D4D5D6D6D4D1CFCC71
:101F1000CBCBCCCDCDCCCAC8C6C4C3C3C4C4C4C348
:101F2000C1BFBDBBBBBBBBBBBBB9B7B5B4B3B2B321
:101F3000B3B2B2B0AEACABAAAAAAAAAAA8A7A5A3EC
:101F4000A2A2A2A2A1A19F9E9C9A9A9999999998BE
:101F50009695939291919190908F8D8B8A89888894
:101F60008888878684828180807F7F7F7E7D7B7961
:101F7000787777777776757472706F6F6E6E6E6D37
:101F80006C6A69676666666665656361605E5E5D0C
:101F90005D5D5D5C5A585755555555555453514FD5
:101FA0004D4D4C4C4D4C4B4A4846444444444444AB
:101FB00042403E3C3B3B3B3C3C3B39373533323285
:101FC00033343433302E2B29292A2B2C2C2A272446
:101FD000211F2021242525221D181514161B1F2121
:101FE00020190F060003122E547FA2C2DCEFFBFF64
:101FF000FDF7EFE6E0DCDBDDE0E3E6E8E7E5E2DE87
:10200000DAD7D5D5D6D8D9DADAD9D7D4D1CECCCC7F
:10201000CCCCCDCECECDCCCAC7C5C3C2C1C1C2C245
:10202000C2C2C1BFBDBBB9B8B7B6B7B7B7B7B6B50F
:10203000B3B1AFADACACACACACACABAAA9A7A5A3EB
:10204000A2A1A1A1A1A1A09F9E9D9B9998979696C0
:10205000969695959492918F8D8C8B8B8B8B8A8A8B
:10206000898886858382808080807F7F7F7D7C7A5F
:102070007977767575747474747372706E6D6B6A3B
:102080006A69696969686766646261605F5E5E5E0D
:102090005E5E5D5C5A5856555453535353535352D6
:1020A000504E4C4A494848484849484746444240AF
:1020B0003E3D3D3D3D3E3E3D3C3A3835333231318B
:1020C0003233333333312E2B282625252627292A50
:1020D0002A2825211D1A1817191C1F2224231F190D
:1020E000100802000410233D5D7F9CB6CEE2F0FA9A
:1020F000FFFFFCF6EFE8E2DDDAD9DADCDFE1E4E568
:10210000E5E4E2DEDBD7D4D2D1D0D1D1D3D4D4D55B
:10211000D4D2D0CECBC9C7C5C4C4C4C5C5C6C6C534
:10212000C4C3C1BFBCBAB9B7B7B7B7B7B7B7B7B60B
:10213000B5B3B2B0AEACABAAA9A9A9A9A9A9A8A8E0
:10214000A6A5A3A19F9E9C9C9B9B9B9B9B9B9A99B6
:1021500097969492918F8E8E8D8D8D8D8D8C8B8A8E
:10216000898785838281808080807F7F7F7E7D7C60
:102170007A787675747372727272727171706E6D34
:102180006B69686665646464646464636361605E0B
:102190005C5A595757565656565656555453514FE2
:1021A0004D4C4A49484848484848484846454340B5
:1021B0003E3C3B3A39393A3A3B3B3B3A383634318C
:1021C0002F2D2B2A2B2B2C2E2E2F2E2D2B2824215E
:1021D0001D1B1A1A1B1E2023252625221D17100938
:1021E000030000050F1D3149637F97ADC2D4E3EFB3
:1021F000F8FDFFFEFBF6F0EAE4DFDBD8D7D6D7D94F
:10220000DBDDDFE1E1E1E0DFDCD9D6D3D0CECCCB42
:10221000CACACBCCCCCDCECECDCCCBC9C7C5C2C023
:10222000BEBDBBBBBBBBBBBBBCBCBCBBBAB9B7B503
:10223000B3B1AFAEACABAAAAAAAAAAAAAAAAA9A8E5
:10224000A7A6A4A2A09E9D9B9A9A999999999999BB
:10225000999897969493918F8D8C8A89898888888C
:10226000888888878786848381807E7C7B7978785C
:102270007777777777777676757372706E6C6B6930
:1022800068676666666666666665656462615F5D08
:102290005B595857565555555555555555545351E5
:1022A000504E4C4A484645444343434444444444C6
:1022B0004442413F3D3A38363433323131323333A0
:1022C0003435353433312F2C292623201F1E1E1E72
:1022D000202224262829282724201B150F09040141
:1022E000000207101C2B3D52687F92A4B5C4D3DFB7
:1022F000EAF2F8FDFFFFFEFBF7F3EEE9E4DFDBD8DF
:10230000D5D4D3D3D3D4D6D7D9DADBDCDCDCDBDA53
:10231000D8D6D3D0CECBC8C6C4C3C2C1C1C1C1C236
:10232000C2C3C3C3C3C3C2C1C0BEBCBAB8B6B4B2D1
:10233000B0AFAEADACACACACACACACACACACABAAD6
:10234000A9A7A6A4A2A09E9C9B99989797969696BB
:1023500096969696969595949391908E8C8A898769
:10236000858482818180808080807F7F7F7F7E7E68
:102370007D7B7A78767573716F6E6C6B6A6A69694A
:10238000696969696969686867666463615F5D5BFB
:1023900059585655545353535353535353535352FD
:1023A00051504F4D4B49474543413F3E3D3C3C3CDE
:1023B0003C3C3D3D3E3E3E3E3D3C3B393734312F7B
:1023C0002C2927252423232324252628292B2C2C9C
:1023D0002C2B2A2724201B16110C080401000002B4
:1023E000070D15202C3B4A5B6D7F8E9DABB9C6D186
:1023F000DCE5EDF3F8FCFEFFFFFDFBF8F4F0ECE8A4
:10240000E3DFDBD8D5D2D1CFCFCECFCFD0D1D2D38F
:10241000D4D5D6D6D6D6D5D4D3D1CFCDCBC8C6C3B6
:10242000C1BFBDBBBAB9B8B7B7B7B7B7B7B8B8B817
:10243000B8B8B8B7B7B6B4B3B1B0AEACAAA8A6A492
:10244000A2A19F9E9D9D9C9C9C9B9C9C9C9C9C9BBC
:102450009B9A9A9998969593918F8E8C8A88868567
:10246000848382818080808080807F7F7F7F7F7E69
:102470007D7C7B7A7977757371706E6C6A6967663B
:102480006565646463636363636463636362626119
:10249000605E5D5B59575553514F4E4C4B49484810
:1024A00047474747474748484848484847464544BC
:1024B00042403E3C39373432302E2C2B2A292929F0
:1024C000292A2B2C2D2E2F30303130302E2D2A273B
:1024D00024201C17130F0B07040200000103070C34
:1024E000121A232E39465462717F7F0801000001C1
:1024F0000102030405060708090A0B0C0D0E0F1153
:1025000012131415161718191A1B1C1D1E1F202133
:1025100022232425262728292A2B2C2E2F3031321E
:10252000333435363738393A3B3C3D3E3F40414203
:102530004344454647484A4B4C4D4E4F50515253E9
:102540005455565758595A5B5C5D5E5F60616263D3
:1025500064666768696A6B6C6D6E6F7071727374B4
:1025600075767778797A7B7C7D7E7F81828384859E
:10257000868788898A8B8C8D8E8F90919293949583
:10258000969798999B9C9D9E9FA0A1A2A3A4A5A667
:10259000A7A8A9AAABACADAEAFB0B1B2B3B4B5B752
:1025A000B8B9BABBBCBDBEBFC0C1C2C3C4C5C6C733
:1025B000C8C9CACBCCCDCECFD0D1D3D4D5D6D7D81D
:1025C000D9DADBDCDDDEDFE0E1E2E3E4E5E6E7E803
:1025D000E9EAEBECEDEEF0F1F2F3F4F5F6F7F8F9E9
:1025E000FAFBFCFDFEFEFFFFFEF77F090000020381
:1025F0000505060708090A0B0C0D0E0F1011121322
:102600001415161718191B1C1C1D1E20212222230D
:1026100025262728292A2B2C2D2E2F3031323334F2
:1026200035363738393A3B3C3D3E3F4041424344E2
:1026300045464748494A4B4C4D4E4F5051525354D2
:1026400055565758595A5B5C5D5E5F6061626364C2
:1026500065666768696A6B6C6D6E6F7071727374B2
:1026600075767778797A7B7C7D7E7F81828384859D
:10267000868788898A8B8C8D8E8F90919293949582
:10268000969798999A9B9C9D9E9FA0A1A2A3A4A572
:10269000A6A7A8A9AAABACADAEAFB0B1B2B3B4B562
:1026A000B6B7B8B9BABBBCBDBEBFC0C1C2C3C4C552
:1026B000C6C7C8C9CACBCCCDCECFD0D1D2D3D4D542
:1026C000D6D7D8D9DADCDDDDDEDFE1E2E3E3E4E62C
:1026D000E7E8E9EAEBECEDEEEFF0F1F2F3F4F5F612
:1026E000F7F8F9FAFAFCFDFFFFF67F080001020394
:1026F0000405060708090A0B0C0D0F10111213141C
:1027000015161718191A1B1C1D1E1F202122232401
:1027100025262728292A2B2C2D2E2F3031323334F1
:1027200035363738393A3B3C3D3E3F4041424344E1
:1027300045464748494A4B4C4D4E4F5051525354D1
:1027400055565758595A5B5C5D5E5F6061626364C1
:1027500065666768696A6B6C6D6E6F7071727374B1
:1027600075767778797A7B7C7D7E7F81828384859C
:10277000868788898A8B8C8D8E8F90919293949581
:10278000969798999A9B9C9D9E9FA0A1A2A3A4A571
:10279000A6A7A8A9AAABACADAEAFB0B1B2B3B4B561
:1027A000B6B7B8B9BABBBCBDBEBFC0C1C2C3C4C551
:1027B000C6C7C8C9CACBCCCDCECFD0D1D2D3D4D541
:1027C000D6D7D8D9DADBDCDDDEDFE0E1E2E3E4E531
:1027D000E6E7E8E9EAEBECEDEEEFF0F2F3F4F5F61C
:1027E000F7F8F9FAFBFCFDFEFFF77F080000030392
:1027F0000405060708090A0B0C0D0E0F1011121321
:102800001415161718191A1B1C1D1E1F202222240E
:1028100024262628292A2B2C2D2E2F3031323334F2
:1028200035363738393A3B3C3D3E3F4041424344E0
:1028300045464748494A4B4C4D4E4F5051525354D0
:1028400055565758595A5B5C5D5E5F6061626364C0
:1028500065666768696A6B6C6D6E6F7071727374B0
:1028600075767778797A7B7C7D7E7F81828384859B
:10287000868788898A8B8C8D8E8F90919293949580
:10288000969798999A9B9C9D9E9FA0A1A2A3A4A570
:10289000A6A7A8A9AAABACADAEAFB0B1B2B3B4B560
:1028A000B6B7B8B9BABBBCBDBEBFC0C1C2C3C4C550
:1028B000C6C7C8C9CACBCCCDCECFD0D1D2D3D4D540
:1028C000D6D7D9D9DBDBDDDDDFE0E1E2E3E4E5E625
:1028D000E7E8E9EAEBECEDEEEFF0F1F2F3F4F5F610
:1028E000F7F8F9FAFBFCFCFFFFF77F0A0004020788
:1028F000040808080B0A0C0C0E0F0F111113141505
:10290000161618191A1B1B1D1E1F202122232425F1
:10291000262728292A2B2C2D2E2F303132333435DF
:10292000363738393A3B3C3D3E3F404142434445CF
:10293000464748494A4B4C4D4E4F505152535455BF
:10294000565758595A5A5C5D5E5F5F6162636464B2
:10295000666668696A6B6B6D6E6F707072727475A3
:1029600075777779797A7C7C7E7E7F818183838598
:10297000868688888A8A8B8D8D8F8F909192949489
:1029800095969799999B9B9C9D9EA0A0A1A2A3A57B
:10299000A5A6A7A8A9AAABACADAEAFB0B1B2B3B46F
:1029A000B5B6B7B8B9BABBBCBDBEBFC0C1C2C3C45F
:1029B000C5C6C7C8C9CACBCCCDCECFD0D1D2D3D44F
:1029C000D5D6D7D8D9DADBDCDDDEDFE0E1E2E4E43E
:1029D000E5E6E7E9E9EAEBECEEEEF0F0F1F3F3F52A
:1029E000F4F7F7F7FBF8FDFBFFF57F16000E0A087A
:1029F0000F0D0C11100F1313131616161819191B9F
:102A00001C1C1E1F1E202221232424262727292A9E
:102A10002A2B2D2D2E30303132333435363738399C
:102A2000393B3B3C3E3E3F4041424344454647479D
:102A3000494A4A4C4D4D4E50505152535455565799
:102A400058595A5B5B5C5E5E5F6161626364656698
:102A50006768696A6B6C6D6D6F7070717273747595
:102A6000767778797A7B7C7D7E7E7F818182838494
:102A700085868788898A8B8C8D8E8F8F9092929392
:102A80009495969798999A9B9C9D9E9EA0A1A1A390
:102A9000A4A4A5A6A7A8A9AAABACADAEAFAFB1B28E
:102AA000B2B3B5B5B6B8B8B9BABBBCBDBEBFC0C18C
:102AB000C1C3C4C4C6C6C7C8C9CACBCCCDCECFCF8C
:102AC000D1D2D2D4D5D5D6D8D8D9DBDBDCDEDDDF88
:102AD000E1E0E1E3E3E4E6E6E7E9E9E9ECECECF088
:102AE000EFEEF3F2F0F7F5F1FFE97F23000C160F9C
:102AF0000C12161211161815161A1B191A1E1E1D65
:102B00001F21212123252424272828282A2C2B2C67
:102B10002E2F2F30323232343536363739393A3B70
:102B20003D3D3D3F40404143444445474748494A75
:102B30004B4B4C4E4E4F505252525455555658597D
:102B4000595A5B5C5D5E5F60606163636465666784
:102B500067696A6B6B6C6E6E6F707172727475758B
:102B6000767878797A7B7C7C7E7F80808183838491
:102B700085868787898A8A8B8D8D8E8F9091919398
:102B8000949495969898999A9B9C9C9E9F9FA0A19F
:102B9000A2A3A4A5A6A6A7A9AAAAABADADADAFB0A6
:102BA000B1B1B3B4B4B5B6B7B8B8BABBBBBCBEBFAD
:102BB000BFC0C2C2C2C4C5C6C6C8C9C9CACBCDCDB2
:102BC000CDCFD0D0D1D3D4D3D5D7D7D7D8DBDBDABC
:102BD000DCDEDEDEE0E2E1E1E5E6E4E5E9EAE7E9C4
:102BE000EEEDE9EDF3F0E9F3FFDC7F2F03001018C1
:102BF000120C0E1518151214191B19171A1E1F1D69
:102C00001D1F222321222426272626292B2B2A2B6F
:102C10002E2F2F2F303234343435373838383A3C71
:102C20003D3D3D3E40414141434546464648494A77
:102C30004A4B4C4E4E4F4F51525353545657575880
:102C4000595A5C5C5C5D5F60606162646565656784
:102C50006869696A6B6D6E6E6F707172727375768A
:102C6000777778797B7B7B7C7E7F7F808183848490
:102C70008486878888898A8C8D8D8E8F9091919299
:102C80009495969697989A9A9A9B9D9E9F9FA0A29C
:102C9000A3A3A3A5A6A7A8A8A9ABACACADAEB0B0A2
:102CA000B1B1B3B4B5B5B6B7B9B9B9BABCBEBEBEA9
:102CB000BFC1C2C2C2C3C5C7C7C7C8CACBCBCBCDB1
:102CC000CFD0D0D0D1D4D5D4D4D6D9D9D8D9DBDDB2
:102CD000DEDCDDE0E2E2E0E1E5E8E6E4E6EBEDEAB9
:102CE000E7EAF1F3EDE7EFFFFCD07F3E11000614B9
:102CF0001C1B141012181D1E1A18191D2122201E2B
:102D00001F222527262425272A2C2B2A2A2C2F313F
:102D100031303031343636363637393B3B3B3B3C4D
:102D20003E4041414141434546464647484A4B4C57
:102D30004C4C4D4F51515151535456565757585A68
:102D40005B5C5C5C5D5F6061616262646667676773
:102D500068696B6C6C6C6D6E707172727274757682
:102D6000777778797A7C7D7D7D7E7F818282828390
:102D70008586878888898A8B8D8D8D8E8F91929399
:102D80009393949697989898999B9D9D9E9E9FA0AB
:102D9000A2A3A3A3A4A5A7A8A8A9A9ABACAEAEAEB5
:102DA000AEB0B2B3B3B3B4B5B7B8B9B9B9BABCBEC3
:102DB000BEBEBEBFC1C3C4C4C4C4C6C8C9C9C9C9D4
:102DC000CBCECFCFCECED0D3D5D5D4D3D5D8DADBDA
:102DD000D9D8DADDE0E1DFDDDEE2E6E7E5E1E2E7F2
:102DE000EDEFEBE4E3EBF9FFEEC17F491E060008CF
:102DF000141D1F1B161213181D21211F1C1B1D2122
:102E000024262624232326292B2C2C2B2A2B2E3038
:102E1000323332313233353839393938393B3D3F45
:102E200040403F3F4042444646464647484A4C4D54
:102E30004D4D4D4E4F5153545454545557595A5A61
:102E40005A5B5B5C5E606161616162646567686872
:102E500068686A6B6D6E6F6F6F707172747575757F
:102E60007677787A7B7C7C7C7D7E7F81828383838E
:102E700084858788898A8A8A8B8D8E8F909090919D
:102E800092949597979797989A9B9D9E9E9E9E9FAA
:102E9000A1A3A4A4A5A5A5A6A8AAABABABABACAEB9
:102EA000B0B1B2B2B2B2B3B5B7B8B9B9B9B9BBBDC6
:102EB000BFC0C0BFBFC0C2C4C6C7C6C6C6C7CACCD3
:102EC000CDCECDCCCDCFD1D4D5D4D3D3D4D6D9DCDF
:102ED000DCDBD9D9DBDEE2E4E3E0DEDEE2E7ECEDE9
:102EE000E9E4E0E2EBF7FFF9E1B67F542E120300CC
:102EF000060F1920211F1B161415181D2225252425
:102F000021201F2124272A2C2C2B2A29292B2E3043
:102F1000333434333232333537393B3C3C3B3B3B43
:102F20003C3E404244444444444446484A4B4C4D51
:102F30004C4C4D4D4F515354555555555557585A66
:102F40005C5D5D5D5D5E5E6061636565666666666F
:102F500067696A6C6D6E6E6E6F6F7072747576777E
:102F600077777778797B7D7E7F7F7F808081828491
:102F7000868788888888898A8B8D8F909091919197
:102F80009293959698999999999A9A9C9E9FA1A1A6
:102F9000A2A2A2A2A3A5A7A8AAAAAAAAAAABACAEBB
:102FA000B0B2B2B3B3B2B3B4B5B7B9BBBBBBBBBBC2
:102FB000BBBDBFC1C3C4C4C4C3C3C4C6C8CACCCDCF
:102FC000CDCCCBCBCCCFD1D4D6D6D5D4D3D3D5D8EA
:102FD000DBDEE0DFDEDBDADADDE2E7EAEBE9E4E0E4
:102FE000DEDFE6F0F9FFFCEDD1AB7F5D3D231004A1
:102FF00000020810191F2324221F1C1917181A1D5C
:103000002125282A2A292726252526282B2E313333
:10301000333333323131323335383A3C3D3E3E3D45
:103020003D3D3D3E4042444647484948484848495E
:103030004A4C4E5052535353535353545556585A67
:103040005C5D5E5E5E5E5E5F60616264666768696D
:103050006969696A6A6B6D6E707273747474747581
:10306000757677797A7C7D7F7F7F80808080828390
:10307000858688898A8A8B8B8B8B8C8D8F91929495
:103080009595969696969798999B9D9E9FA0A1A19F
:10309000A1A1A1A2A3A5A7A9AAABACACACACACACB6
:1030A000ADAFB1B3B5B6B7B7B7B7B6B7B8B9BBBDC3
:1030B000BFC1C2C2C2C2C1C1C2C3C5C7CACCCDCEC4
:1030C000CECDCCCCCCCCCED1D4D7D9DADAD9D8D6D7
:1030D000D5D5D7DADEE2E5E7E8E6E3E0DDDBDCE004
:1030E000E6EFF7FDFFFBEFDCC2A27F6349311D0F66
:1030F000050000030910171D2225262523201E1B6D
:103100001A1A1B1D2124282B2D2E2F2E2E2C2B2B53
:103110002A2B2D2F313436383A3B3B3B3A3A39395A
:103120003A3B3C3E40434546484848484848484862
:10313000494A4C4D4F51535455565656565656576C
:1031400057595A5C5E606163636464646464646577
:103150006668696B6D6E707171727272727273747F
:103160007576787A7C7D7E7F7F7F8080808081828B
:10317000838587898A8B8C8D8D8D8D8D8E8E8F9199
:1031800092949697999A9B9B9B9B9B9B9C9C9E9FA2
:10319000A1A3A5A6A8A8A9A9A9A9A9A9AAABACAEAB
:1031A000B0B2B3B5B6B7B7B7B7B7B7B7B7B9BABCB8
:1031B000BFC1C3C4C5C6C6C5C5C4C4C4C5C7C9CBC1
:1031C000CED0D2D4D5D4D4D3D1D1D0D1D2D4D7DBD0
:1031D000DEE2E4E5E5E4E1DFDCDAD9DADDE2E8EFDE
:1031E000F6FCFFFFFAF0E2CEB69C7F68523D2B1C46
:1031F000100702000104090F151B20242728292885
:10320000262422201E1E1E1F202326292C2F313368
:1032100034353534333332313132333436383A3D64
:103220003F41424444444444444343434445464864
:103230004A4C4E5051535455555555555555555664
:103240005758595B5D5F6162646565666666666670
:1032500066666768696B6C6E707273757676777781
:10326000777777777878797B7C7E8081838486878F
:103270008788888888888889898A8C8D8F9193949B
:10328000969798999999999999999A9A9B9D9EA0A0
:10329000A2A4A6A7A8A9AAAAAAAAAAAAAAAAABACA3
:1032A000AEAFB1B3B5B7B9BABBBCBCBCBBBBBBBBA3
:1032B000BBBBBDBEC0C2C5C7C9CBCCCDCECECDCCAD
:1032C000CCCBCACACBCCCED0D3D6D9DCDFE0E1E1BF
:1032D000E1DFDDDBD9D7D6D7D8DBDFE4EAF0F6FBD8
:1032E000FEFFFDF8EFE3D4C2AD977F6D5B4A3B2C48
:1032F00020150D070200000104080C11161B2024E4
:10330000272A2B2C2C2C2B29282625242323232445
:103310002527292C2F313437393B3C3D3E3E3E3E5C
:103320003D3D3C3C3C3C3C3D3E3F41434547494B99
:103330004D4F50515253535353535353535353546C
:10334000555658595B5D5F61636466676868696973
:103350006969696969696A6A6B6C6E6F71737576A0
:10336000787A7B7D7E7E7F7F7F7F8080808080817A
:103370008182848587898A8C8E9091939495959685
:1033800096969696969696979798999B9C9EA0A2AD
:10339000A4A6A7A9AAABACACACACACACACACACAC86
:1033A000ADAEAFB0B2B4B6B8BABCBEC0C1C2C3C392
:1033B000C3C3C3C2C2C1C1C1C1C2C3C4C6C8CBCECC
:1033C000D0D3D6D8DADBDCDCDCDBDAD9D7D6D4D381
:1033D000D3D3D4D5D8DBDFE4E9EEF3F7FBFEFFFF70
:1033E000FDF8F2EADFD3C4B5A4927F716254463986
:1033F0002E231A120C07030100000204070B0F13FF
:10340000171C2024272A2D2E30303130302F2E2D1E
:103410002C2B2A292929292A2B2C2E3032343739D2
:103420003C3E40424445464748484848484847474C
:10343000474747474848494B4C4E4F5153555759BA
:103440005B5D5E6061626263636364636363636365
:10345000646465656667696A6C6E707173757779A7
:103460007A7B7C7D7E7F7F7F7F7F80808080808075
:10347000818283848586888A8C8E8F919395969895
:10348000999A9A9B9B9C9C9C9C9C9B9C9C9C9D9D84
:103490009E9FA1A2A4A6A8AAACAEB0B1B3B4B6B781
:1034A000B7B8B8B8B8B8B8B7B7B7B7B7B7B8B9BAA0
:1034B000BBBDBFC1C3C6C8CBCDCFD1D3D4D5D6D663
:1034C000D6D6D5D4D3D2D1D0CFCFCECFCFD1D2D5DF
:1034D000D8DBDFE3E8ECF0F4F8FBFDFFFFFEFCF8DF
:1034E000F3EDE5DCD1C6B9AB9D8EF2FBFCFDFEFE33
:1034F000FEFFFFFFFFFFFFFFFFFFFFFFFFFFFFFFDD
:10350000FEFEFEFEFEFEFEFEFEFEFEFEFEFEFEFEDB
:10351000FEFEFEFFFFFFFFFFFFFFFFFFFFFFFFFEBF
:10352000FEFEFEFEFEFEFEFEFEFEFEFEFEFEFEFEBB
:10353000FEFEFEFEFFFFFFFFFFFFFFFFFFFFFFFF9F
:10354000FEFEFEFEFEFEFEFEFEFEFEFEFEFEFEFE9B
:10355000FEFEFEFFFFFFFFFFFFFFFFFFFFFFFFFF7E
:10356000FFFFFEFEFEFDFCFBF2800D0403020101E5
:10357000010000000000000000000000000000004A
:10358000010101010101010101010101010101012B
:103590000101010000000000000000000000000127
:1035A000010101010101010101010101010101010B
:1035B0000101010100000000000000000000000007
:1035C00001010101010101010101010101010101EB
:1035D00001010100000000000000000000000000E8
:1035E00000000101010203040D7FF4FEFFFEFEFD59
:1035F000FEFEFEFEFEFEFEFEFEFEFEFEFEFEFEFEEB
:10360000FEFEFEFEFEFEFEFEFEFEFEFEFEFEFEFEDA
:10361000FEFEFEFEFEFEFEFEFEFEFEFEFEFEFEFECA
:10362000FEFEFEFEFEFEFEFEFEFEFEFEFEFEFEFEBA
:10363000FEFEFEFEFEFEFEFEFEFEFEFEFEFEFEFEAA
:10364000FEFEFEFEFEFEFEFEFEFEFEFEFEFEFEFE9A
:10365000FEFEFEFEFEFEFEFEFEFEFEFEFEFEFEFE8A
:10366000FEFEFEFDFEFEFFFEF4800B0100010102E6
:10367000010101010101010101010101010101013A
:10368000010101010101010101010101010101012A
:10369000010101010101010101010101010101011A
:1036A000010101010101010101010101010101010A
:1036B00001010101010101010101010101010101FA
:1036C00001010101010101010101010101010101EA
:1036D00001010101010101010101010101010101DA
:1036E00001010102010100010B7FF6FFFFFFFFFF57
:1036F000FFFFFFFFFFFFFFFFFFFFFFFFFFFFFFFFDA
:10370000FFFFFFFFFFFFFFFFFFFFFFFFFFFFFFFFC9
:10371000FFFFFFFFFFFFFFFFFFFFFFFFFFFFFFFFB9
:10372000FFFFFFFFFFFFFFFFFFFFFFFFFFFFFFFFA9
:10373000FFFFFFFFFFFFFFFFFFFFFFFFFFFFFFFF99
:10374000FFFFFFFFFFFFFFFFFFFFFFFFFFFFFFFF89
:10375000FFFFFFFFFFFFFFFFFFFFFFFFFFFFFFFF79
:10376000FFFFFFFFFFFFFFFFF680090000000000E2
:103770000000000000000000000000000000000049
:103780000000000000000000000000000000000039
:103790000000000000000000000000000000000029
:1037A0000000000000000000000000000000000019
:1037B0000000000000000000000000000000000009
:1037C00000000000000000000000000000000000F9
:1037D00000000000000000000000000000000000E9
:1037E0000000000000000000097FF6FEFFFEFFFE63
:1037F000FFFEFEFEFEFEFEFEFEFEFEFEFEFEFEFEE8
:10380000FEFEFEFEFEFEFEFEFEFEFEFEFEFEFEFED8
:10381000FEFEFEFEFEFEFEFEFEFEFEFEFEFEFEFEC8
:10382000FEFEFEFEFEFEFEFEFEFEFEFEFEFEFEFEB8
:10383000FEFEFEFEFEFEFEFEFEFEFEFEFEFEFEFEA8
:10384000FEFEFEFEFEFEFEFEFEFEFEFEFEFEFEFE98
:10385000FEFEFEFEFEFEFEFEFEFEFEFEFEFEFEFE88
:10386000FEFEFFFEFFFEFFFEF680090100010001E3
:103870000001010101010101010101010101010139
:103880000101010101010101010101010101010128
:103890000101010101010101010101010101010118
:1038A0000101010101010101010101010101010108
:1038B00001010101010101010101010101010101F8
:1038C00001010101010101010101010101010101E8
:1038D00001010101010101010101010101010101D8
:1038E0000101000100010001097FF4FFFCFFFBFE64
:1038F000FCFDFDFCFEFCFEFDFDFEFDFEFDFDFDFDF7
:10390000FDFDFDFDFDFDFDFDFDFDFDFDFDFDFDFDE7
:10391000FDFDFDFDFDFDFDFDFDFDFDFDFDFDFDFDD7
:10392000FDFDFDFDFDFDFDFDFDFDFDFDFDFDFDFDC7
:10393000FDFDFDFDFDFDFDFDFDFDFDFDFDFDFDFDB7
:10394000FDFDFDFDFDFDFDFDFDFDFDFDFDFDFDFDA7
:10395000FDFDFDFDFDFDFDFEFDFEFDFDFEFCFEFC95
:10396000FDFDFCFEFBFFFCFFF4800B0003000401E7
:103970000302020301030102020102010202020228
:103980000202020202020202020202020202020217
:103990000202020202020202020202020202020207
:1039A00002020202020202020202020202020202F7
:1039B00002020202020202020202020202020202E7
:1039C00002020202020202020202020202020202D7
:1039D00002020202020202010201020201030103C9
:1039E00002020301040003000B7FE9FFF2F7FAF47F
:1039F000F7F9F5F7F8F5F7F8F6F7F8F6F7F8F6F758
:103A0000F8F6F7F8F6F7F7F6F6F7F7F6F7F7F6F74A
:103A1000F7F6F7F7F6F7F7F6F7F7F6F7F7F6F7F73B
:103A2000F6F7F7F6F7F7F6F7F7F6F7F7F6F7F7F62C
:103A3000F7F7F6F7F7F6F7F7F6F7F7F6F7F7F6F71B
:103A4000F7F6F7F7F6F7F7F6F7F7F6F6F7F7F6F80B
:103A5000F7F6F8F7F6F8F7F6F8F7F6F8F7F5F8F7F7
:103A6000F5F9F7F4FAF7F2FFE98016000D08050BF7
:103A700008060A08070A08070908070908070908C5
:103A800007090807090808090908080908080908B2
:103A900008090808090808090808090808090808A1
:103AA0000908080908080908080908080908080990
:103AB0000808090808090808090808090808090881
:103AC0000809080809080809080809090808090771
:103AD000080907080907080907080907080A070865
:103AE0000A06080B05080D00167FDBFFF5EBF3F760
:103AF000F2EFF3F5F1F0F4F4F1F1F4F4F1F1F4F3A1
:103B0000F1F2F4F3F1F2F3F3F1F2F3F2F1F3F3F291
:103B1000F2F3F3F2F2F3F3F2F2F3F3F2F2F3F3F27D
:103B2000F2F3F3F2F2F3F2F2F2F3F2F2F2F3F2F270
:103B3000F3F3F2F2F3F3F2F2F3F3F2F2F3F3F2F25D
:103B4000F3F3F2F2F3F3F1F2F3F2F1F3F3F2F1F350
:103B5000F4F2F1F3F4F1F1F4F4F1F1F4F4F0F1F53D
:103B6000F3EFF2F7F3EBF5FFDB8024000A140C0807
:103B70000D100C0A0E0F0B0B0E0E0B0B0E0E0B0C7A
:103B80000E0D0B0C0E0D0C0C0E0D0C0D0E0C0C0D69
:103B90000D0C0C0D0D0C0C0D0D0C0C0D0D0C0C0D5D
:103BA0000D0C0C0D0D0C0D0D0D0C0D0D0D0C0D0D4A
:103BB0000C0C0D0D0C0C0D0D0C0C0D0D0C0C0D0D3D
:103BC0000C0C0D0D0C0C0E0D0C0D0E0C0C0D0E0C2A
:103BD0000B0D0E0C0B0E0E0B0B0E0E0B0B0F0E0A1D
:103BE0000C100D080C140A00247FCEFBFFF1E9EF46
:103BF000F7F6F0EDF1F5F4F0EFF2F4F3F0F0F2F4A3
:103C0000F3F0F0F2F3F2F0F0F2F3F2F1F1F2F3F29A
:103C1000F1F1F2F3F2F1F1F2F3F2F1F1F2F3F2F188
:103C2000F1F2F3F1F1F1F3F3F1F1F1F3F3F1F1F179
:103C3000F3F2F1F1F2F3F2F1F1F2F3F2F1F1F2F366
:103C4000F2F1F1F2F3F2F1F1F2F3F2F0F0F2F3F259
:103C5000F0F0F3F4F2F0F0F3F4F2EFF0F4F5F1ED4C
:103C6000F0F6F7EFE9F1FFFBCE803104000E1610FD
:103C700008090F120E0A0B0F100D0B0C0F0F0D0B76
:103C80000C0F0F0D0C0D0F0F0D0C0D0E0E0D0C0D5E
:103C90000E0E0D0C0D0E0E0D0C0D0E0E0D0C0D0E50
:103CA0000E0D0C0E0E0E0C0C0E0E0E0C0C0E0E0E3F
:103CB0000C0D0E0E0D0C0D0E0E0D0C0D0E0E0D0C32
:103CC0000D0E0E0D0C0D0E0E0D0C0D0F0F0D0C0D1F
:103CD0000F0F0C0B0D0F0F0C0B0D100F0B0A0E120C
:103CE0000F090810160E0004317FC1EEFFF9ECE653
:103CF000E9F0F5F3EDEAEBEFF2F1EEEBECEFF1F1D9
:103D0000EEECECEFF1F0EEEDEDEEF0F0EFEDEDEED0
:103D1000F0F0EFEDEDEEF0F0EFEDEDEEEFF0EFEEB9
:103D2000EDEEEFF0EFEEEDEEEFF0EFEEEDEEEFF0AB
:103D3000EFEEEDEEEFF0EFEEEDEDEFF0F0EEEDED9E
:103D4000EFF0F0EEEDEDEFF0F0EEEDEDEEF0F1EF87
:103D5000ECECEEF1F1EFECEBEEF1F2EFEBEAEDF380
:103D6000F5F0E9E6ECF9FFEEC1803E11000613190B
:103D7000160F0A0C121514100D0E111413100E0E3E
:103D8000111313100E0F111212110F0F1012121126
:103D90000F0F101212110F0F10121211100F10111D
:103DA0001211100F10111211100F10111211100F0B
:103DB00010111211100F10111212100F0F111212F8
:103DC000100F0F111212100F0F111212110F0E10EF
:103DD0001313110E0E101314110E0D101415120CD6
:103DE0000A0F1619130600113E7FB6E1F9FFF8ED30
:103DF000E5E5EAF0F4F3EFEAE8EAEDF1F2F0EDEAF6
:103E0000EAECEFF0F0EEECEBEBEDEFF0EFEDECEBDE
:103E1000ECEEF0EFEEECEBECEDEFEFEFEDECECEDCC
:103E2000EEEFEFEEEDECECEDEFEFEFEDECECEDEEB9
:103E3000EFEFEEEDECECEDEFEFEFEDECEBECEEEFAA
:103E4000F0EEECEBECEDEFF0EFEDEBEBECEEF0F099
:103E5000EFECEAEAEDF0F2F1EDEAE8EAEFF3F4F084
:103E6000EAE5E5EDF8FFF9E1B680491E0600071224
:103E70001A1A150F0B0C10151715120E0D0F12151F
:103E80001513100F0F1113141412100F1012131416
:103E900013110F1011131413121010101213131208
:103EA00011101011121313121010101213131211FB
:103EB00010101112131312101010121314131110EA
:103EC0000F1113141312100F1012141413110F0FDB
:103ED00010131515120F0D0E12151715100C0B0FD0
:103EE000151A1A120700061E497FAACFEBFAFFFB2C
:103EF000F3EAE4E3E5EAEFF3F3F2EEEAE8E7E9EC0C
:103F0000EFF1F1EFEDEBE9E9EAECEFF0F0EEEDEBDC
:103F1000EAEAEBEDEEEFEFEEECEBEAEAEBEDEEEFDB
:103F2000EFEEECEBEAEAECEDEFEFEFEDECEAEAEBCB
:103F3000ECEEEFEFEEEDEBEAEAEBECEEEFEFEEEDB1
:103F4000EBEAEAEBEDEEF0F0EFECEAE9E9EBEDEFAE
:103F5000F1F1EFECE9E7E8EAEEF2F3F3EFEAE5E39B
:103F6000E4EAF3FBFFFAEBCFAA8055301405000416
:103F70000C151B1C1A15100C0C0D11151718161307
:103F8000100E0E10121416161513100F0F11121416
:103F900015151412111010111314151514121110F7
:103FA00010111314151513121010101213151514E7
:103FB00013111010111214151514131110101112E1
:103FC0001415151412110F0F1013151616141210C4
:103FD0000E0E101316181715110D0C0C10151A1CB7
:103FE0001B150C0400051430557FA1BFD9EDF9FF56
:103FF000FFFAF4EDE7E3E2E4E7ECF0F3F4F3F1EEDB
:10400000EBE9E7E7E8EAEDEFF1F1F1EFEDEBE9E9F4
:10401000E9EAEBEDEFF0F0F0EEEDEBEAE9E9EAECDE
:10402000EEEFF0F0EFEEECEBEAE9EAEBECEEEFF0BE
:10403000F0EFEEECEAE9E9EAEBEDEEF0F0F0EFEDAF
:10404000EBEAE9E9E9EBEDEFF1F1F1EFEDEAE8E7B1
:10405000E7E9EBEEF1F3F4F3F0ECE7E4E2E3E7EDAC
:10406000F4FAFFFFF9EDD9BFA1805E4026120600E9
:1040700000050B12181C1D1B18130F0C0B0C0E1136
:1040800014161818171512100E0E0E1012141616FC
:1040900016151412100F0F0F1112141516161513F2
:1040A00011100F0F10111314151615141311100FF2
:1040B0000F101113151616151412110F0F0F1012E1
:1040C00014151616161412100E0E0E1012151718BF
:1040D000181614110E0C0B0C0F13181B1D1C1812A4
:1040E0000B050000061226405E7F9AB4CADEEDF78B
:1040F000FDFFFEFAF4EFE9E5E2E1E2E4E7EBEEF1E1
:10410000F3F3F3F1EFECEAE8E6E6E6E8E9ECEEEFEC
:10411000F1F1F1EFEEECEAE9E8E7E8E9EAECEDEFDE
:10412000F0F0F0EFEEECEAE9E8E8E8E9EAECEEEFCF
:10413000F0F0F0EFEDECEAE9E8E7E8E9EAECEEEFC1
:10414000F1F1F1EFEEECE9E8E6E6E6E8EAECEFF1B2
:10415000F3F3F3F1EEEBE7E4E2E1E2E5E9EFF4FAA1
:10416000FEFFFDF7EDDECAB49A80654B35211208DB
:10417000020001050B10161A1D1E1D1B1814110E2E
:104180000C0C0C0E10131517191919171613111002
:104190000E0E0E10111315161718171615131210F0
:1041A0000F0F0F10111315161717171615131110DF
:1041B0000F0F0F10121315161718171615131110CD
:1041C0000E0E0E1011131617191919171513100EBC
:1041D0000C0C0C0E1114181B1D1E1D1A16100B05AD
:1041E000010002081221354B657F97ADC2D5E4F07E
:1041F000F8FDFFFEFBF7F2EDE8E5E2E1E1E3E5E8DB
:10420000EBEEF1F2F3F3F2F1EFECEAE8E7E6E6E6E3
:10421000E8E9EBEDEFF0F1F1F1F0EEECEBE9E8E7D6
:10422000E7E7E8E9EBEDEEEFF0F1F0EFEEEDEBE9CB
:10423000E8E7E7E7E8E9EBECEEF0F1F1F1F0EFEDBC
:10424000EBE9E8E6E6E6E7E8EAECEFF1F2F3F3F2B1
:10425000F1EEEBE8E5E3E1E1E2E5E8EDF2F7FBFEA4
:10426000FFFDF8F0E4D5C2AD978068523D2A1B0FE0
:104270000702000104080D12171A1D1E1E1C1A1732
:1042800014110E0D0C0C0D0E101315171819191909
:1042900017161412100F0E0E0E0F111314161718F6
:1042A00018181716141211100F0E0F1011121416E1
:1042B0001718181817161413110F0E0E0E0F1012D0
:1042C00014161719191918171513100E0D0C0C0DBB
:1042D0000E1114171A1C1E1E1D1A17120D080401A8
:1042E0000002070F1B2A3D52687F90A1B1BFCDD9B4
:1042F000E4EDF4F9FDFFFFFEFCF9F6F2EFEBE8E583
:10430000E3E1E0E0E1E2E4E6E8EBEDEFF1F2F3F423
:10431000F4F3F2F1EFEDEBEAE8E7E5E5E4E5E5E6F5
:10432000E7E9EAECEEEFF0F1F2F2F2F1F0EFEEECA9
:10433000EAE9E7E6E5E5E4E5E5E7E8EAEBEDEFF1F4
:10434000F2F3F4F4F3F2F1EFEDEBE8E6E4E2E1E0AE
:10435000E0E1E3E5E8EBEFF2F6F9FCFEFFFFFDF943
:10436000F4EDE4D9CDBFB1A190806F5E4E4032260E
:104370001B120B06020000010306090D1014171A88
:104380001C1E1F1F1E1D1B19171412100E0D0C0BC7
:104390000B0C0D0E1012141517181A1A1B1A1A19D5
:1043A0001816151311100F0E0D0D0D0E0F10111301
:1043B000151618191A1A1B1A1A1817151412100E96
:1043C0000D0C0B0B0C0D0E10121417191B1D1E1FBC
:1043D0001F1E1C1A1714100D090603010000020607
:1043E0000B121B2632404E5E6F7F8D9AA7B4BFCA58
:1043F000D4DEE6EDF2F7FBFDFFFFFFFDFCF9F7F47D
:10440000F1EEEBE8E6E3E2E1E0E0E0E1E2E3E5E65D
:10441000E8EAECEEF0F2F3F4F4F4F4F4F3F2F0EF93
:10442000EDEBEAE8E7E5E4E3E3E3E3E3E4E5E7E82B
:10443000EAEBEDEFF0F2F3F4F4F4F4F4F3F2F0EE6F
:10444000ECEAE8E6E5E3E2E1E0E0E0E1E2E3E6E829
:10445000EBEEF1F4F7F9FCFDFFFFFFFDFBF7F2EDEA
:10446000E6DED4CABFB4A79A8D807265584B40353A
:104470002B2119120D080402000000020306080B8C
:104480000E111417191C1D1E1F1F1F1E1D1C1A198B
:10449000171513110F0D0C0B0B0B0B0B0C0D0F1035
:1044A00012141517181A1B1C1C1C1C1C1B1A18177D
:1044B000151412100F0D0C0B0B0B0B0B0C0D0F1119
:1044C000131517191A1C1D1E1F1F1F1E1D1C19173F
:1044D00014110E0B080603020000000204080D125E
:1044E00019212B35404B5865727F828486888A8CCF
:1044F0008E90929496989A9C9EA0A2A4A6A8AAACEC
:10450000AEB0B2B4B6B8BABCBEC0C2C4C6C8CACCDB
:10451000CED0D2D4D6D8DADCDEE0E2E4E6E8EAECCB
:10452000EEF0F2F4F6F8FAFCFEFFFEFCFAF8F6F410
:10453000F2F0EEECEAE8E6E4E2E0DEDCDAD8D6D44B
:10454000D2D0CECCCAC8C6C4C2C0BEBCBAB8B6B43B
:10455000B2B0AEACAAA8A6A4A2A09E9C9A9896942B
:1045600092908E8C8A88868482807D7B7977757321
:10457000716F6D6B69676563615F5D5B595755531B
:10458000514F4D4B49474543413F3D3B393735330B
:10459000312F2D2B29272523211F1D1B19171513FB
:1045A000110F0D0B09070503010001030507090B96
:1045B0000D0F11131517191B1D1F21232527292B3B
:1045C0002D2F31333537393B3D3F41434547494B2B
:1045D0004D4F51535557595B5D5F61636567696B1B
:1045E0006D6F71737577797B7D80828486888A8C04
:1045F0008E90929496989A9C9EA0A2A4A6A8AAACEB
:10460000AEB0B2B4B6B8BABCBEC0C2C4C6C8CACCDA
:10461000CED0D2D4D6D8DADCDEE0E2E4E6E8EAECCA
:10462000EEF0F2F4F6F8FAFCFEFFFEFCFAF8F6F40F
:10463000F2F0EEECEAE8E6E4E2E0DEDCDAD8D6D44A
:10464000D2D0CECCCAC8C6C4C2C0BEBCBAB8B6B43A
:10465000B2B0AEACAAA8A6A4A2A09E9C9A9896942A
:1046600092908E8C8A88868482807D7B7977757320
:10467000716F6D6B69676563615F5D5B595755531A
:10468000514F4D4B49474543413F3D3B393735330A
:10469000312F2D2B29272523211F1D1B19171513FA
:1046A000110F0D0B09070503010001030507090B95
:1046B0000D0F11131517191B1D1F21232527292B3A
:1046C0002D2F31333537393B3D3F41434547494B2A
:1046D0004D4F51535557595B5D5F61636567696B1A
:1046E0006D6F71737577797B7D80828486888A8C03
:1046F0008E90929496989A9C9EA0A2A4A6A8AAACEA
:10470000AEB0B2B4B6B8BABCBEC0C2C4C6C8CACCD9
:10471000CED0D2D4D6D8DADCDEE0E2E4E6E8EAECC9
:10472000EEF0F2F4F6F8FAFCFEFFFEFCFAF8F6F40E
:10473000F2F0EEECEAE8E6E4E2E0DEDCDAD8D6D449
:10474000D2D0CECCCAC8C6C4C2C0BEBCBAB8B6B439
:10475000B2B0AEACAAA8A6A4A2A09E9C9A98969429
:1047600092908E8C8A88868482807D7B797775731F
:10477000716F6D6B69676563615F5D5B5957555319
:10478000514F4D4B49474543413F3D3B3937353309
:10479000312F2D2B29272523211F1D1B19171513F9
:1047A000110F0D0B09070503010001030507090B94
:1047B0000D0F11131517191B1D1F21232527292B39
:1047C0002D2F31333537393B3D3F41434547494B29
:1047D0004D4F51535557595B5D5F61636567696B19
:1047E0006D6F71737577797B7D80828486888A8C02
:1047F0008E90929496989A9C9EA0A2A4A6A8AAACE9
:10480000AEB0B2B4B6B8BABCBEC0C2C4C6C8CACCD8
:10481000CED0D2D4D6D8DADCDEE0E2E4E6E8EAECC8
:10482000EEF0F2F4F6F8FAFCFEFFFEFCFAF8F6F40D
:10483000F2F0EEECEAE8E6E4E2E0DEDCDAD8D6D448
:10484000D2D0CECCCAC8C6C4C2C0BEBCBAB8B6B438
:10485000B2B0AEACAAA8A6A4A2A09E9C9A98969428
:1048600092908E8C8A88868482807D7B797775731E
:10487000716F6D6B69676563615F5D5B5957555318
:10488000514F4D4B49474543413F3D3B3937353308
:10489000312F2D2B29272523211F1D1B19171513F8
:1048A000110F0D0B09070503010001030507090B93
:1048B0000D0F11131517191B1D1F21232527292B38
:1048C0002D2F31333537393B3D3F41434547494B28
:1048D0004D4F51535557595B5D5F61636567696B18
:1048E0006D6F71737577797B7D80828486888A8C01
:1048F0008E90929496989A9C9EA0A2A4A6A8AAACE8
:10490000AEB0B2B4B6B8BABCBEC0C2C4C6C8CACCD7
:10491000CED0D2D4D6D8DADCDEE0E2E4E6E8EAECC7
:10492000EEF0F2F4F6F8FAFCFEFFFEFCFAF8F6F40C
:10493000F2F0EEECEAE8E6E4E2E0DEDCDAD8D6D447
:10494000D2D0CECCCAC8C6C4C2C0BEBCBAB8B6B437
:10495000B2B0AEACAAA8A6A4A2A09E9C9A98969427
:1049600092908E8C8A88868482807D7B797775731D
:10497000716F6D6B69676563615F5D5B5957555317
:10498000514F4D4B49474543413F3D3B3937353307
:10499000312F2D2B29272523211F1D1B19171513F7
:1049A000110F0D0B09070503010001030507090B92
:1049B0000D0F11131517191B1D1F21232527292B37
:1049C0002D2F31333537393B3D3F41434547494B27
:1049D0004D4F51535557595B5D5F61636567696B17
:1049E0006D6F71737577797B7D80828486888A8C00
:1049F0008E90929496989A9C9EA0A2A4A6A8AAACE7
:104A0000AEB0B2B4B6B8BABCBEC0C2C4C6C8CACCD6
:104A1000CED0D2D4D6D8DADCDEE0E2E4E6E8EAECC6
:104A2000EEF0F2F4F6F8FAFCFEFFFEFCFAF8F6F40B
:104A3000F2F0EEECEAE8E6E4E2E0DEDCDAD8D6D446
:104A4000D2D0CECCCAC8C6C4C2C0BEBCBAB8B6B436
:104A5000B2B0AEACAAA8A6A4A2A09E9C9A98969426
:104A600092908E8C8A88868482807D7B797775731C
:104A7000716F6D6B69676563615F5D5B5957555316
:104A8000514F4D4B49474543413F3D3B3937353306
:104A9000312F2D2B29272523211F1D1B19171513F6
:104AA000110F0D0B09070503010001030507090B91
:104AB0000D0F11131517191B1D1F21232527292B36
:104AC0002D2F31333537393B3D3F41434547494B26
:104AD0004D4F51535557595B5D5F61636567696B16
:104AE0006D6F71737577797B7D80828486888A8CFF
:104AF0008E90929496989A9C9EA0A2A4A6A8AAACE6
:104B0000AEB0B2B4B6B8BABCBEC0C2C4C6C8CACCD5
:104B1000CED0D2D4D6D8DADCDEE0E2E4E6E8EAECC5
:104B2000EEF0F2F4F6F8FAFCFEFFFEFCFAF8F6F40A
:104B3000F2F0EEECEAE8E6E4E2E0DEDCDAD8D6D445
:104B4000D2D0CECCCAC8C6C4C2C0BEBCBAB8B6B435
:104B5000B2B0AEACAAA8A6A4A2A09E9C9A98969425
:104B600092908E8C8A88868482807D7B797775731B
:104B7000716F6D6B69676563615F5D5B5957555315
:104B8000514F4D4B49474543413F3D3B3937353305
:104B9000312F2D2B29272523211F1D1B19171513F5
:104BA000110F0D0B09070503010001030507090B90
:104BB0000D0F11131517191B1D1F21232527292B35
:104BC0002D2F31333537393B3D3F41434547494B25
:104BD0004D4F51535557595B5D5F61636567696B15
:104BE0006D6F71737577797B7D80818486888A8CFF
:104BF0008E90929496989A9C9EA0A2A4A6A8AAACE5
:104C0000AEB0B2B4B6B8BABCBEC0C2C4C6C8CACCD4
:104C1000CED0D2D4D6D8DADCDEE0E2E4E6E8EAECC4
:104C2000EEF0F2F4F6F8FAFCFEFFFEFCFAF8F6F409
:104C3000F2F0EEECEAE8E6E4E2E0DEDCDAD8D6D444
:104C4000D2D0CECCCAC8C6C4C2C0BEBCBAB8B6B434
:104C5000B2B0AEACAAA8A6A4A2A09E9C9A98969424
:104C600092908E8C8A88868481807E7B797775731A
:104C7000716F6D6B69676563615F5D5B5957555314
:104C8000514F4D4B49474543413F3D3B3937353304
:104C9000312F2D2B29272523211F1D1B19171513F4
:104CA000110F0D0B09070503010001030507090B8F
:104CB0000D0F11131517191B1D1F21232527292B34
:104CC0002D2F31333537393B3D3F41434547494B24
:104CD0004D4F51535557595B5D5F61636567696B14
:104CE0006D6F71737577797B7E80828486888A8CFC
:104CF0008E90929496989A9C9EA0A2A4A6A8AAACE4
:104D0000AEB0B2B4B6B8BABCBEC0C2C4C6C8CACCD3
:104D1000CED0D2D4D6D8DADCDEE0E2E4E6E8EAECC3
:104D2000EEF0F2F4F6F8FBFDFEFFFEFDFBF8F6F404
:104D3000F2F0EEECEAE8E6E4E2E0DEDCDAD8D6D443
:104D4000D2D0CECCCAC8C6C4C2C0BEBCBAB8B6B433
:104D5000B2B0AEACAAA8A6A4A2A09E9C9A98969423
:104D600092908E8C8A88868482807D7B7977757319
:104D7000716F6D6B69676563615F5D5B5957555313
:104D8000514F4D4B49474543413F3D3B3937353303
:104D9000312F2D2B29272523211F1D1B19171513F3
:104DA000110F0D0B09070402010001020407090B92
:104DB0000D0F11131517191B1D1F21232527292B33
:104DC0002D2F31333537393B3D3F41434547494B23
:104DD0004D4F51535557595B5D5F61636567696B13
:104DE0006D6F71737577797B7D80828486888A8CFC
:104DF0008E90929496989A9C9EA0A2A4A6A8AAACE3
:104E0000AEB0B2B4B6B8BABCBEC0C2C4C6C8CACCD2
:104E1000CED0D2D4D6D8DADCDEE0E2E4E6E8EBEDC0
:104E2000EFF1F2F4F6F9FBFDFEFFFEFDFBF9F6F4FF
:104E3000F2F1EFEDEBE8E6E4E2E0DEDCDAD8D6D43E
:104E4000D2D0CECCCAC8C6C4C2C0BEBCBAB8B6B432
:104E5000B2B0AEACAAA8A6A4A2A09E9C9A98969422
:104E600092908E8C8A88868482807D7B7977757318
:104E7000716F6D6B69676563615F5D5B5957555312
:104E8000514F4D4B49474543413F3D3B3937353302
:104E9000312F2D2B29272523211F1D1B19171412F4
:104EA000100E0D0B09060402010001020406090B95
:104EB0000D0E10121417191B1D1F21232527292B36
:104EC0002D2F31333537393B3D3F41434547494B22
:104ED0004D4F51535557595B5D5F61636567696B12
:104EE0006D6F71737577797B7D80828486888A8CFB
:104EF0008E90929496989A9C9EA0A2A4A6A8AAACE2
:104F0000AEB0B2B4B6B8BABCBEC0C2C4C6C8CACCD1
:104F1000CED1D3D5D7D9DBDDDFE1E3E5E7E9EBEDB2
:104F2000EFF1F3F5F7FAFCFDFFFFFFFDFCFAF7F5F3
:104F3000F3F1EFEDEBE9E7E5E3E1DFDDDBD9D7D531
:104F4000D3D1CECCCAC8C6C4C2C0BEBCBAB8B6B42F
:104F5000B2B0AEACAAA8A6A4A2A09E9C9A98969421
:104F600092908E8C8A88868482807D7B7977757317
:104F7000716F6D6B69676563615F5D5B5957555311
:104F8000514F4D4B49474543413F3D3B3937353301
:104F9000312E2C2A28262422201E1C1A1816141200
:104FA000100E0C0A08050302000000020305080A9F
:104FB0000C0E10121416181A1C1E20222426282A41
:104FC0002C2E31333537393B3D3F41434547494B23
:104FD0004D4F51535557595B5D5F61636567696B11
:104FE0006D6F71737577797B7D80818385888A8CFD
:104FF0008E90929496989A9C9EA0A2A4A6A8AAACE1
:10500000AEB0B2B4B6B8BABCBFC1C3C5C7C9CBCDC8
:10501000CFD1D3D5D7D9DBDDDFE1E3E5E7E9EBEDB0
:10502000EFF1F4F6F8FAFCFEFFFFFFFEFCFAF8F6EB
:10503000F4F1EFEDEBE9E7E5E3E1DFDDDBD9D7D52F
:10504000D3D1CFCDCBC9C7C5C3C1BFBCBAB8B6B425
:10505000B2B0AEACAAA8A6A4A2A09E9C9A98969420
:1050600092908E8C8A88858381807E7C7A77757316
:10507000716F6D6B69676563615F5D5B5957555310
:10508000514F4D4B49474543403E3C3A3836343208
:10509000302E2C2A28262422201E1C1A1816141200
:1050A000100E0B09070503010000000103050709A5
:1050B0000B0E10121416181A1C1E20222426282A41
:1050C0002C2E30323436383A3C3E40434547494B2B
:1050D0004D4F51535557595B5D5F61636567696B10
:1050E0006D6F717375777A7C7E80818385878A8CFA
:1050F0008E90929496989A9C9EA0A2A4A6A8AAACE0
:10510000AEB1B3B5B7B9BBBDBFC1C3C5C7C9CBCDC0
:10511000CFD1D4D6D8DADCDEE0E2E3E5E7E9EBEEA6
:10512000F0F2F5F7F9FBFDFEFFFFFFFEFDFBF9F7DF
:10513000F5F2F0EEEBE9E7E5E3E2E0DEDCDAD8D623
:10514000D4D1CFCDCBC9C7C5C3C1BFBDBBB9B7B51E
:10515000B3B1AEACAAA8A6A4A2A09E9C9A9896941D
:1051600092908E8C8A87858381807E7C7A78757315
:10517000716F6D6B69676563615F5D5B595755530F
:10518000514E4C4A48464442403E3C3A383634320E
:10519000302E2B29272523211F1D1C1A1816141108
:1051A0000F0D0A08060402010000000102040608AF
:1051B0000A0D0F111416181A1C1D1F21232527294B
:1051C0002B2E30323436383A3C3E40424446484A30
:1051D0004C4E51535557595B5D5F61636567696B11
:1051E0006D6F717375787A7C7E80828486888A8CF4
:1051F0008E90929496989A9C9EA0A2A4A7A9ABADDB
:10520000AFB1B3B5B7B9BBBDBFC1C3C5C7C9CCCEBC
:10521000D0D2D4D6D8DADCDEE0E1E3E5E8EAECEEA1
:10522000F1F3F6F8FAFCFDFEFFFFFFFEFDFCFAF8D5
:10523000F6F3F1EEECEAE8E5E3E1E0DEDCDAD8D61D
:10524000D4D2D0CECCC9C7C5C3C1BFBDBBB9B7B519
:10525000B3B1AFADABA9A7A4A2A09E9C9A98969417
:1052600092908E8C8A88868482807D7B7977757314
:10527000716F6D6B69676563615F5D5B5856545212
:10528000504E4C4A48464442403E3C3A3836333110
:105290002F2D2B29272523211F1E1C1A171513110B
:1052A0000E0C0907050302010000000102030507B7
:1052B000090C0E111315171A1C1E1F21232527294F
:1052C0002B2D2F313336383A3C3E40424446484A33
:1052D0004C4E50525456585B5D5F61636567696B15
:1052E0006D6F71737577797B7D80828486888A8CF7
:1052F0008F91939597989A9C9EA0A2A4A6A8ABADD7
:10530000AFB1B3B6B8BABCBEC1C3C5C7C9CBCCCEAA
:10531000D0D2D4D6D8DADCDEE0E3E5E7EAECEFF190
:10532000F3F6F8FAFBFCFEFEFFFFFFFEFEFCFBFAC5
:10533000F8F6F3F1EFECEAE7E5E3E0DEDCDAD8D605
:10534000D4D2D0CECCCBC9C7C5C3C1BEBCBAB8B607
:10535000B3B1AFADABA8A6A4A2A09E9C9A98979516
:1053600093918F8C8A88868482807D7B7977757310
:10537000706E6C6A68676563615F5D5B5957545214
:10538000504E4C49474543413E3C3A383634333120
:105390002F2D2B29272523211F1C1A181513100E1A
:1053A0000C090705040301010000000101030405C5
:1053B00007090C0E101315181A1C1F212325272965
:1053C0002B2D2F31333436383A3C3E414345474943
:1053D0004C4E50525457595B5D5F61636567686A14
:1053E0006C6E70737577797B7D7F81838587898B00
:1053F0008D8F929496989A9D9FA1A3A6A8AAACAFD0
:10540000B1B3B5B7B9BBBDBFC1C2C4C6C8CACCCEA3
:10541000D0D2D4D7D9DBDEE0E2E5E7EAECEFF1F376
:10542000F5F7F9FAFCFDFEFEFFFFFFFEFEFDFCFABC
:10543000F9F7F5F3F1EFECEAE7E5E2E0DEDBD9D7E7
:10544000D4D2D0CECCCAC8C6C4C2C1BFBDBBB9B706
:10545000B5B3B1AFACAAA8A6A3A19F9D9A98969404
:10546000928F8D8B8987858381807E7C7A78767414
:1054700072706D6B69676562605E5C595755535019
:105480004E4C4A48464442403E3D3B393735333125
:105490002F2D2B282624211F1D1A181513100E0C32
:1054A0000A080605030201010000000101020305CC
:1054B00006080A0C0E101315181A1D1F2124262881
:1054C0002B2D2F31333537393B3D3E404244464842
:1054D0004A4C4E50535557595C5E60626567696B24
:0A54E0006D70727476787A7C7E7F1E
:00000001FF
